:1000000040020120F1970000957A0400C597000096
:10001000C5970000C5970000C5970000C597000070
:10002000000000000000000000000000D990000067
:10003000C5970000000000007D900000C5970000FB
:100040005991000059910000599100005991000008
:1000500059910000599100005991000059910000F8
:1000600059910000599100005991000059910000E8
:1000700059910000599100005991000059910000D8
:1000800059910000599100005991000059910000C8
:1000900059910000599100005991000059910000B8
:1000A00059910000599100005991000059910000A8
:1000B0005991000059910000599100005991000098
:1000C0005991000059910000599100005991000088
:1000D0005991000059910000599100005991000078
:1000E0005991000059910000599100005991000068
:1000F0005991000059910000599100005991000058
:100100005991000059910000599100005991000047
:100110005991000059910000599100005991000037
:100120005991000059910000599100005991000027
:100130005991000059910000599100005991000017
:100140005991000059910000599100005991000007
:0401500059910000C1
:04015400FFFFFFFFAB
:1001580081F0004102E000BF83F0004330B54FEA70
:1001680041044FEA430594EA050F08BF90EA020FDD
:100178001FBF54EA000C55EA020C7FEA645C7FEA70
:10018800655C00F0E2804FEA5454D4EB5555B8BF93
:100198006D420CDD2C4480EA020281EA030382EA04
:1001A800000083EA010180EA020281EA0303362D96
:1001B80088BF30BD11F0004F4FEA01314FF4801C69
:1001C8004CEA113102D0404261EB410113F0004F7B
:1001D8004FEA03334CEA133302D0524263EB430332
:1001E80094EA050F00F0A780A4F10104D5F1200ED0
:1001F8000DDB02FA0EFC22FA05F2801841F100012B
:1002080003FA0EF2801843FA05F359410EE0A5F1FE
:1002180020050EF1200E012A03FA0EFC28BF4CF02F
:10022800020C43FA05F3C01851EBE37101F00045E5
:1002380007D54FF0000EDCF1000C7EEB00006EEBF2
:100248000101B1F5801F1BD3B1F5001F0CD349087C
:100258005FEA30004FEA3C0C04F101044FEA4452D3
:1002680012F5800F80F09A80BCF1004F08BF5FEA5A
:10027800500C50F1000041EB045141EA050130BD3A
:100288005FEA4C0C404141EB0101013C28BFB1F54C
:10029800801FE9D291F0000F04BF01460020B1FA97
:1002A80081F308BF2033A3F10B03B3F120020CDA6A
:1002B8000C3208DD02F1140CC2F10C0201FA0CF048
:1002C80021FA02F10CE002F11402D8BFC2F1200CAD
:1002D80001FA02F120FA0CFCDCBF41EA0C01904063
:1002E800E41AA2BF01EB0451294330BD6FEA0404AC
:1002F8001F3C1CDA0C340EDC04F11404C4F1200297
:1003080020FA04F001FA02F340EA030021FA04F3A8
:1003180045EA030130BDC4F10C04C4F1200220FAFF
:1003280002F001FA04F340EA0300294630BD21FA3D
:1003380004F0294630BD94F0000F83F4801306BF03
:1003480081F480110134013D4EE77FEA645C18BFF7
:100358007FEA655C29D094EA050F08BF90EA020F8E
:1003680005D054EA000C04BF1946104630BD91EA86
:10037800030F1EBF0021002030BD5FEA545C05D189
:100388004000494128BF41F0004130BD14F58004C8
:100398003CBF01F5801130BD01F0004545F0FE413C
:1003A80041F470014FF0000030BD7FEA645C1ABF71
:1003B800194610467FEA655C1CBF0B46024650EAA8
:1003C800013406BF52EA033591EA030F41F40021D4
:1003D80030BD00BF90F0000F04BF0021704730B55A
:1003E8004FF4806404F132044FF000054FF000012F
:1003F80050E700BF90F0000F04BF0021704730B5F0
:100408004FF4806404F1320410F0004548BF4042C4
:100418004FF000013EE700BF42004FEAE2014FEA19
:1004280031014FEA02701FBF12F07F4393F07F4FF4
:1004380081F06051704732F07F4208BF704793F0F7
:100448007F4F04BF41F40021704730B54FF460740A
:1004580001F0004521F000411CE700BF50EA01020D
:1004680008BF704730B54FF000050AE050EA0102B6
:1004780008BF704730B511F0004502D5404261EB26
:1004880041014FF4806404F132045FEA915C3FF467
:10049800D8AE4FF003025FEADC0C18BF03325FEA04
:1004A800DC0C18BF033202EBDC02C2F1200300FAB5
:1004B80003FC20FA02F001FA03FE40EA0E0021FADA
:1004C80002F11444BDE600BF70B54FF0FF0C4CF4C8
:1004D800E06C1CEA11541DBF1CEA135594EA0C0F7A
:1004E80095EA0C0F00F0DEF82C4481EA030621EAB5
:1004F8004C5123EA4C5350EA013518BF52EA0335F0
:1005080041F4801143F4801338D0A0FB02CE4FF0A1
:100518000005E1FB02E506F00042E0FB03E54FF0D1
:100528000006E1FB03569CF0000F18BF4EF0010EC9
:10053800A4F1FF04B6F5007F64F5407404D25FEAC5
:100548004E0E6D4146EB060642EAC62141EA555178
:100558004FEAC52040EA5E504FEACE2EB4F1FD0CBA
:1005680088BFBCF5E06F1ED8BEF1004F08BF5FEA38
:10057800500E50F1000041EB045170BD06F00046EA
:1005880046EA010140EA020081EA0301B4EB5C0497
:10059800C2BFD4EB0C0541EA045170BD41F480118F
:1005A8004FF0000E013C00F3AB8014F1360FDEBFB4
:1005B800002001F0004170BDC4F10004203C35DA90
:1005C8000C341BDC04F11404C4F1200500FA05F313
:1005D80020FA04F001FA05F240EA020001F00042B4
:1005E80021F0004110EBD37021FA04F642EB06012A
:1005F8005EEA430E08BF20EAD37070BDC4F10C0454
:10060800C4F1200500FA04F320FA05F001FA04F217
:1006180040EA020001F0004110EBD37041F1000103
:100628005EEA430E08BF20EAD37070BDC4F120050E
:1006380000FA05F24EEA020E20FA04F301FA05F276
:1006480043EA020321FA04F001F0004121FA04F21E
:1006580020EA020000EBD3705EEA430E08BF20EAEE
:10066800D37070BD94F0000F0FD101F00046400028
:1006780041EB010111F4801F08BF013CF7D041EAAA
:10068800060195F0000F18BF704703F000465200AE
:1006980043EB030313F4801F08BF013DF7D043EA7F
:1006A8000603704794EA0C0F0CEA135518BF95EA35
:1006B8000C0F0CD050EA410618BF52EA4306D1D1BC
:1006C80081EA030101F000414FF0000070BD50EADB
:1006D800410606BF1046194652EA430619D094EA65
:1006E8000C0F02D150EA013613D195EA0C0F05D14F
:1006F80052EA03361CBF104619460AD181EA0301A3
:1007080001F0004141F0FE4141F470014FF000005A
:1007180070BD41F0FE4141F4780170BD70B54FF0F5
:10072800FF0C4CF4E06C1CEA11541DBF1CEA135575
:1007380094EA0C0F95EA0C0F00F0A7F8A4EB050457
:1007480081EA030E52EA03354FEA013100F088804E
:100758004FEA03334FF0805545EA131343EA126317
:100768004FEA022245EA111545EA10654FEA0026CC
:100778000EF000419D4208BF964244F1FD0404F585
:10078800407402D25B084FEA3202B61A65EB0305E1
:100798005B084FEA32024FF480104FF4002CB6EB9E
:1007A800020E75EB030E22BFB61A754640EA0C001E
:1007B8005B084FEA3202B6EB020E75EB030E22BF5E
:1007C800B61A754640EA5C005B084FEA3202B6EB9F
:1007D800020E75EB030E22BFB61A754640EA9C005E
:1007E8005B084FEA3202B6EB020E75EB030E22BF2E
:1007F800B61A754640EADC0055EA060E18D04FEAEC
:10080800051545EA16754FEA06164FEAC30343EA8B
:1008180052734FEAC2025FEA1C1CC0D111F4801F58
:100828000BD141EA00014FF000004FF0004CB6E751
:1008380011F4801F04BF01430020B4F1FD0C88BFF0
:10084800BCF5E06F3FF6AFAEB5EB030C04BFB6EBFB
:10085800020C5FEA500C50F1000041EB045170BDEE
:100868000EF0004E4EEA113114EB5C04C2BFD4EB1B
:100878000C0541EA045170BD41F480114FF0000E9F
:10088800013C90E645EA060E8DE60CEA135594EA1B
:100898000C0F08BF95EA0C0F3FF43BAF94EA0C0F1E
:1008A8000AD150EA01347FF434AF95EA0C0F7FF493
:1008B80025AF104619462CE795EA0C0F06D152EAE7
:1008C80003353FF4FDAE1046194622E750EA4106CB
:1008D80018BF52EA43067FF4C5AE50EA41047FF4DC
:1008E8000DAF52EA43057FF4EBAE12E74FF0FF3C41
:1008F80006E000BF4FF0010C02E000BF4FF0010C12
:100908004DF804CD4FEA410C7FEA6C5C4FEA430C8A
:1009180018BF7FEA6C5C1BD001B050EA410C0CBFD9
:1009280052EA430C91EA030F02BF90EA020F00203B
:10093800704710F1000F91EA030F58BF994208BFA2
:1009480090422CBFD8176FEAE37040F0010070475F
:100958004FEA410C7FEA6C5C02D150EA013C07D1B6
:100968004FEA430C7FEA6C5CD6D152EA033CD3D001
:100978005DF8040B704700BF8446104662468C46FB
:100988001946634600E000BF01B5FFF7B7FF00282E
:1009980048BF10F1000F01BD4DF808EDFFF7F4FF57
:1009A8000CBF012000205DF808FB00BF4DF808EDE2
:1009B800FFF7EAFF34BF012000205DF808FB00BF05
:1009C8004DF808EDFFF7E0FF94BF012000205DF827
:1009D80008FB00BF4DF808EDFFF7CEFF94BF0120DC
:1009E80000205DF808FB00BF4DF808EDFFF7C4FFD5
:1009F80034BF012000205DF808FB00BF4A0011D277
:100A080012F5001211D20DD56FF47873B3EB625260
:100A18000ED44FEAC12343F0004343EA505323FA6C
:100A280002F070474FF00000704750EA013002D1E1
:100A38004FF0FF3070474FF0000070474FEA410217
:100A4800B2F1E04324BFB3F5001CDCF1FE5C0DD924
:100A580001F0004C4FEAC0024CEA5070B2F1004F6E
:100A680040EB830008BF20F00100704711F0804F71
:100A780021D113F13872BCBF01F00040704741F436
:100A880080114FEA5252C2F11802C2F1200C10FA3A
:100A98000CF320FA02F018BF40F001004FEAC1231E
:100AA8004FEAD32303FA0CFC40EA0C0023FA02F3C2
:100AB8004FEA4303CCE77FEA625307D150EA013398
:100AC8001EBF4FF0FE4040F44000704701F0004068
:100AD80040F0FE4040F40000704700BF7BB972B997
:100AE8000029BEBF00204FF0004106E008BF0028E3
:100AF8001CBF6FF000414FF0FF3000F075B8ADF14A
:100B0800080C6DE904CE002909DB002B1ADB01F083
:100B1800B4F8DDF804E0DDE9022304B07047404290
:100B280061EB4101002B1BDB01F0A7F8DDF804E0C5
:100B3800DDE9022304B0404261EB4101524263EB1C
:100B480043037047524263EB430301F096F8DDF824
:100B580004E0DDE9022304B0404261EB4101704743
:100B6800524263EB430301F088F8DDF804E0DDE965
:100B7800022304B0524263EB4303704753B94AB9A6
:100B8800002908BF00281CBF4FF0FF314FF0FF308D
:100B980000F02AB8ADF1080C6DE904CE01F06DF84B
:100BA800DDF804E0DDE9022304B07047D0B5002287
:100BB8000B4B06460F46FFF787FCFFF71FFF04465F
:100BC800FFF708FC0022074BFFF77EFC02460B46A6
:100BD80030463946FFF7C0FAFFF710FF2146D0BD6F
:100BE8000000F03D0000F041704700BF844641EA34
:100BF800000313F0030349D1403A23D30B68036081
:100C08004B6843608B688360CB68C3600B69036182
:100C18004B6943618B698361CB69C3610B6A03626A
:100C28004B6A43628B6A8362CB6AC3620B6B036352
:100C38004B6B43638B6B8363CB6BC3634030403137
:100C4800403ADBD230320BD30B6803604B68436009
:100C58008B688360CB68C36010301031103AF3D2D0
:100C68000C3205D351F8043B40F8043B043AF9D25E
:100C7800043208D0D2071CBF11F8013B00F8013B31
:100C880001D30B8803806046704700BF082A13D33E
:100C98008B07B1D010F00303AED0C3F10403D21A0E
:100CA800DB071CBF11F8013B00F8013BA4D331F866
:100CB800023B20F8023B9FE7043AD9D3013A11F8E6
:100CC800013B00F8013BF9D20B7803704B78437075
:100CD8008B7883706046704780EA010C1CF0030F24
:100CE80037D110F0030C20F0030021F0030150F875
:100CF800042B08BF51F8043B0ED08CF0030C6FF0A6
:100D08007F434FEACC0C23FA0CFC51F8043B42EA2F
:100D18000C0243EA0C0300BFA2F1013C9A4201BF56
:100D28002CEA020C1CF0803F50F8042B51F8043BCD
:100D3800F2D04FEA02604FEA1222012828BFB0EB36
:100D4800036F08BF1B0AF4D003F0FF03000EC01A9C
:100D5800704710F0030F0AD010F8012B11F8013B6F
:100D6800012A28BF9A42F4D0A2EB030070474DF83D
:100D7800045D50F8042B01F0030521F0030151F83C
:100D8800043B022D26D04DD822F07F45B5EB132F1A
:100D9800A2F1013C2CEA020C0DD11CF0803C08BFEA
:100DA80051F8043B0AD185EA0205B5EB036F0CD173
:100DB80050F8042BE8E74FEA13235BE03CF07F4C44
:100DC80054D10B784FEA126554E04FEA126503F0EC
:100DD800FF034FE04FEA0245A2F1013C4FEA1545F7
:100DE8002CEA020CB5EB134F18D11CF0803C08BF5D
:100DF80051F8043B07D185EA0205B5EB034F09D149
:100E080050F8042BE6E75FEA0C4C2FD10B884FEA29
:100E180012452FE04FEA03434FEA12454FEA1343C6
:100E280028E000BF02F0FF05B5EB136FA2F1013C0B
:100E38002CEA020C0DD11CF0803C08BF51F8043B91
:100E48000AD185EA0205B5EB032F0AD150F8042B25
:100E5800E8E74FEA13630DE012F0FF0F06D051F8F0
:100E6800043B4FEA122523F07F4303E04FF00000D4
:100E780020BC704705F0FF0203F0FF00012828BFDF
:100E8800904204BF2D0A1B0AF4D0A2EB000020BC3C
:100E9800704700BF4FEA410C7FEA6C5C02D150EA10
:100EA800013C0AD14FEA430C7FEA6C5C02D152EA5A
:100EB800033C02D14FF0000070474FF0010070472B
:100EC8004FEA410212F5001215D211D56FF478736A
:100ED800B3EB625212D94FEAC12343F0004343EA0D
:100EE800505311F0004F23FA02F018BF40427047E8
:100EF8004FF00000704750EA013005D111F0004072
:100F080008BF6FF0004070474FF00000704700BF07
:100F18002DE9F14F03F11C0402EB840C4FEA930B0B
:100F28008A68CB680868496800F046F93CE9F0002F
:100F38006040694072407B400BF1060E4EE083EA48
:100F4800134480EA134582EA134746BA96EA3444C2
:100F5800604000F00F1684EA063420F00F1684EA89
:100F6800161054BA94EA0106724002F00F1486EA89
:100F7800043622F00F1486EA14124CBA6540694010
:100F880001F00F1485EA043521F00F1485EA1411D5
:100F98005CBA67407B4003F00F1487EA043723F0FC
:100FA8000F1487EA141344BA44404DBA4D4056BA58
:100FB80056405FBA5F4087EA174886EA174B84EACB
:100FC80017464FEA38488BEA1B4485EA1B4788EAEC
:100FD8001B4580EA3440694072407B4000F0703421
:100FE80000F0803500F00F3040EA440040EAD500B8
:100FF80080EA900404F0332480EA8400604001F021
:10100800703401F0803501F00F3141EA440141EAC2
:10101800D50181EA910404F0332481EA8401614016
:1010280002F0703402F0803502F00F3242EA4402D6
:1010380042EAD50282EA920404F0332482EA840266
:10104800624003F0703403F0803503F00F3343EA55
:10105800440343EAD50383EA930404F0332483EA80
:1010680084036340C943DB4381EA000483EA0446FE
:1010780086EA020183EA014382EA334583EA14439C
:101088005C4084EA00077FEA040A8AEA024A8AEA9C
:10109800010B87EA11488AEA374A80EA060181EAA1
:1010A8001A418AEA030A04EA0A00454088EA040762
:1010B80007EA0B0041408AEA0B0608EA060084EAC0
:1010C80034428AEA3A4602EA06035840454041401B
:1010D80087EA37438BEA3B4003EA000985EA0905BA
:1010E80082EA0309464006EA0906714085EA0100DA
:1010F80005EA3546464006EA314181EA304181EA4F
:10110800364606EA304686EA354634400F4086EAD7
:10111800010508EA050886EA3640024088EA02081E
:1011280081EA314213405C4080EA020309EA03097C
:1011380087EA0907674088EA040806EA0A0601EA16
:101148000B018AEA0B0425408AEA3A4420404540CC
:101158008BEA3B4B02EA0B02564084EA0B0423401D
:1011680059406E40694087EA364080EA384080EA54
:10117800060380EA104481EA134585EA344585EA86
:1011880017427D4082EA354180EA05403CE9F0009B
:101198006040694072407B40BEF1010E3FF6CFAE21
:1011A80020BC00F05FF828606960AA60EB60BDE8C9
:1011B800F08F00BF00F000BA80EA101404F0F014B9
:1011C80080EA0410604081EA111404F0F01481EA06
:1011D8000411614082EA121404F0F01482EA041245
:1011E800624083EA131404F0F01483EA04136340A2
:1011F80080EA102404F47F4480EA0420604081EAF5
:10120800112404F47F4481EA0421614082EA122413
:1012180004F47F4482EA0422624083EA132404F43B
:101228007F4483EA0423634081EA500404F0553480
:1012380080EA4400614083EA520404F0553482EAAB
:101248004402634082EA900404F0333480EA840064
:10125800624083EA910404F0333481EA84016340F4
:10126800704700BF82EA900404F0333480EA8400B7
:10127800624083EA910404F0333481EA84016340D4
:1012880081EA500404F0553480EA4400614083EA5E
:10129800520404F0553482EA4402634080EA102480
:1012A80004F47F4480EA0420604081EA112404F4B5
:1012B8007F4481EA0421614082EA122404F47F44D5
:1012C80082EA0422624083EA132404F47F4483EA16
:1012D8000423634080EA101404F0F01480EA041038
:1012E800604081EA111404F0F01481EA04116140AD
:1012F80082EA121404F0F01482EA0412624083EACB
:10130800131404F0F01483EA04136340704700BF19
:101318002DE9F14F94464FEA930B8A68CB68086829
:101328004968FFF749FF0BF1060E33E083EA1344DF
:1013380080EA134582EA134746BA96EA3444604085
:1013480000F00F1684EA063420F00F1684EA16100F
:1013580054BA94EA0106724002F00F1486EA043681
:1013680022F00F1486EA14124CBA6540694001F065
:101378000F1485EA043521F00F1485EA14115CBABC
:1013880067407B4003F00F1487EA043723F00F14FB
:1013980087EA1413BCE8F0006040694072407B4063
:1013A80000F0E03400F0103500F00F3040EA54004F
:1013B80040EAC50080EA900404F0332480EA8400FF
:1013C800604001F0E03401F0103501F00F3141EADE
:1013D800540141EAC50181EA910404F0332481EA09
:1013E8008401614002F0E03402F0103502F00F325F
:1013F80042EA540242EAC50282EA920404F0332423
:1014080082EA8402624003F0E03403F0103503F00E
:101418000F3343EA540343EAC50383EA930404F011
:10142800332483EA8403634081EA324787EA134519
:1014380081EA354690EA060484EA034B82EA1B42B5
:1014480080EA044484EA054483EA144A85EA144499
:101458008BEA044B84EA374481EA0B4181EA16415E
:1014680004EA0A00454082EA04082BEA08004140E1
:101478008AEA0B0602EA060084EA34438AEA3A4614
:1014880003EA060778404540414088EA38478BEA36
:101498003B4007EA000985EA090583EA070946404F
:1014A80006EA0906714085EA010005EA3546464024
:1014B80006EA314181EA304181EA364606EA304699
:1014C80086EA3546344008EA010886EA01052A40DA
:1014D80086EA364003405A4081EA31431F407C4047
:1014E80080EA030709EA070988EA0908544088EAF4
:1014F800020806EA0A0601EA0B018AEA0B0215400D
:101508008AEA3A42104045408BEA3B4003405E403D
:101518004240174079404D404E40E443F64386EA46
:1015280018435D4085EA054083EA134386EA034190
:1015380083EA384284EA114383EA04435FEA334387
:10154800BEF1010E3FF6F2AE1ED4BCE8F0006040DA
:10155800694072407B4020BCFFF784FE28606960C8
:10156800AA60EB60BDE8F08F2DE9E0414FF2F00290
:1015780080EA1031114080EA013048404108820871
:10158800C3084FF0000E4FE700F0113001F01131A1
:1015980002F0113203F0113340EA410040EA8200C0
:1015A80040EAC3004FF2F00280EA1031114080EAAD
:1015B80001304840BDE8E0812DE9F04F02F11C05FB
:1015C8000646074600EB850851F8040B043A46F82E
:1015D800040BF9D14FF0010CFFF7C6FF5FEA30208A
:1015E80080EA0C001ECF41404A4053405C401EC672
:1015F8002000464517D04FEA4C0C1CF4807F18BFDA
:10160800ACF1E50C2C2DE7D03C2D06D1FFF7ACFF53
:1016180006CF41404A4006C6100006CF41404A4026
:1016280006C61000D8E736E90F00FFF7C5FD043DF0
:1016380086E80F00F7D1BDE8F08F00BF2DE9F04F25
:10164800B0E8FE0783B02DE9010790E8005F4FF08E
:101658000A0006900198DB199CEA030C18EB3C4839
:1016680097EA080713EB375393EA3C4C18EB3C68AE
:1016780098EA375724189EEA040E19EB3E4990EA77
:10168800090014EB305494EA3E4E19EB3E6999EA8E
:101698003050CDE90489DDE9028949199AEA010A3D
:1016A80018EB3A4895EA080511EB355191EA3A4AA0
:1016B80018EB3A6898EA355592199BEA020B19EB30
:1016C8003B4996EA090612EB365292EA3B4B19EB74
:1016D8003B6999EA365613EB706393EA3B6B18EB58
:1016E8003B4898EA706013EB305393EA3B4B5FEA50
:1016F8003B6B18EB0B0898EA30505FEA706014EB0C
:10170800756494EA3C6C19EB3C4999EA756514EBED
:10171800355494EA3C4C5FEA3C6C19EB0C0999EAA5
:1017280035555FEA7565CDE90289DDE9048911EB74
:10173800766191EA3E6E18EB3E4898EA766611EBC0
:10174800365191EA3E4E5FEA3E6E18EB0E0898EA73
:1017580036565FEA766612EB776292EA3A6A19EBD6
:101768003A4999EA776712EB375292EA3A4A5FEABE
:101778003A6A19EB0A0999EA37575FEA77670190DD
:10178800069801387FF465AF01BC80E8005FBDE8CA
:10179800000700E9FE0703B0BDE8F08F30B44FF052
:1017A800000310F8014B11F8015B013A84EA0504C3
:1017B80043EA0403F5D1A3F101034FEAD37030BC27
:1017C800704700BF4FF0000310F8012B013943EABE
:1017D8000203F9D1A3F101034FEAD370704700BFA8
:1017E80030B411F8014B12F8015B6C4000F8014B62
:1017F800013BF6D130BC70472DE9F14FF8C892E8AB
:10180800005E19EB03095AEB040A5BEB050B5CEB72
:10181800060C4EEB070E91E8E001A9FB0502AAFBB6
:101828000543E9FB6624EAFB6634A9FB0765E9FB87
:101838006845B1E80003EBFB6836ECFB6846EEFB55
:101848006856ABFB0987ECFB6957EEFB696791E8C3
:101858000202EAFB6148EBFB6158ECFB6168EEFBB6
:1018680061784FF00001EAFB0951EBFB6961ECFB81
:101878006971EEFB69814FF4A03C4FEA154949EACA
:1018880006495FF0000AE9FB0C0A4FEA164646EAE9
:101898000746E6FB6C2A4FEA174747EA0847E7FB83
:1018A8006C3A4FEA184848EA0148E8FB6C4AADB27E
:1018B8005544AF0805F0030507EB8707C01952F137
:1018C800000153F1000254F1000345F1000420BC6B
:1018D8001FC5BDE8F08F00BF30B490E83C10511D23
:1018E80053F1000154F1000155F100014CF10001E0
:1018F8004FEA9101494201F00501521853F10003E2
:1019080054F1000455F100054CF1000C0CF0030CE7
:1019180080E83C1030BC70472DE9F04F90E8F00F9C
:1019280000F140004FF0040E59E0F0B4826BC36B35
:1019380004680525242687593C444FEA724787EAFC
:10194800F24787EA92273C4442684FEAF21787EA4F
:10195800B24787EAD2073C4440F8044B032D08BF3E
:101968006FF01B0687593A444FEA734787EAF347F3
:1019780087EA93273A4443684FEAF31787EAB3475D
:1019880087EAD3073A4440F8042B87593B444FEA87
:10199800744787EAF44787EA94273B4444684FEA48
:1019A800F41787EAB44787EAD4073B4440F8043B76
:1019B800013DC0D1A0F13C00076A3C444FEA7247A0
:1019C80087EAF24787EA92273C4402684FEAF2170F
:1019D80087EAB24787EAD2073C44C463F0BC4FF0B9
:1019E800020288EA781C8CEAF84C0BEBBC1C8AEAE9
:1019F800090303EA080383EA0A039C4450F8043BFA
:101A08009C4451F8043B9C44674444EA050B0BEAA8
:101A1800060B04EA05034BEA030BE34484EAF423C8
:101A280083EA34530BEBB30B87EA771C8CEAF74C49
:101A38000AEBBC1C89EA080303EA070383EA0903E3
:101A48009C4450F8043B9C4451F8043B9C44664435
:101A58004BEA040A0AEA050A0BEA04034AEA030AFB
:101A6800E2448BEAFB2383EA3B530AEBB30A86EA98
:101A7800761C8CEAF64C09EBBC1C88EA070303EADF
:101A8800060383EA08039C4450F8043B9C4451F83D
:101A9800043B9C4465444AEA0B0909EA04090AEA3A
:101AA8000B0349EA0309E1448AEAFA2383EA3A5331
:101AB80009EBB30985EA751C8CEAF54C08EBBC1CEC
:101AC80087EA060303EA050383EA07039C4450F800
:101AD800043B9C4451F8043B9C44644449EA0A088A
:101AE80008EA0B0809EA0A0348EA0308E04489EA15
:101AF800F92383EA395308EBB30884EA741C8CEAA7
:101B0800F44C07EBBC1C86EA050303EA040383EAEA
:101B180006039C4450F8043B9C4451F8043B9C4405
:101B2800E34448EA090707EA0A0708EA090347EA13
:101B38000307674488EAF82383EA385307EBB307B7
:101B48008BEA7B1C8CEAFB4C06EBBC1C85EA040385
:101B580003EA0B0383EA05039C4450F8043B9C44C6
:101B680051F8043B9C44E24447EA080606EA0906A1
:101B780007EA080346EA0306664487EAF72383EA86
:101B8800375306EBB3068AEA7A1C8CEAFA4C05EB63
:101B9800BC1C84EA0B0303EA0A0383EA04039C449B
:101BA80050F8043B9C4451F8043B9C44E14446EA09
:101BB800070505EA080506EA070345EA030565443B
:101BC80086EAF62383EA365305EBB30589EA791CDE
:101BD8008CEAF94C04EBBC1C8BEA0A0303EA090300
:101BE80083EA0B039C4450F8043B9C4451F8043BA3
:101BF8009C44E04445EA060404EA070405EA0603AF
:101C080044EA0304644485EAF52383EA355304EB84
:101C1800B304013A7FF4E5AEA0F14000BEF1010E35
:101C28007FF483AEA0F1400C9CE80F00001949191D
:101C38009219DB19ACE80F009CE80F0040444944B6
:101C480052445B44ACE80F00BDE8F08F38B5002281
:101C5800002304460D46FEF7A9FE28B9204629466A
:101C6800BDE83840FEF7A2BF204605F10041FEF767
:101C78009DFF404261EB410138BD2DE9F0478646A2
:101C88008C460846089E154674461946002B40F0B7
:101C9800C1808542B2FA82F245D94AB1C2F1200325
:101CA80000FA02FC954094402EFA03F343EA0C0C28
:101CB8004FEA154EA8B2230CBCFBFEF80EFB18CC5D
:101CC80008FB00F943EA0C43994528D9EB1808F1B9
:101CD800FF3704D2994502D9A8F102072B44A3EB98
:101CE8000903A4B2B3FBFEFC0EFB1C330CFB00F093
:101CF80044EA0344A04214D92C190CF1FF3304D24E
:101D0800A04202D9ACF102032C44241A43EA07404A
:101D18001EB1D440002334607360BDE8F0874746A5
:101D2800DDE76346F1E792BB431B01214FEA154EFD
:101D3800AFB2200CB3FBFEFC0EFB1C330CFB07F808
:101D480040EA0343984561D9EB180CF1FF3004D2FF
:101D5800984502D9ACF102002B44A3EB0803A4B2C6
:101D6800B3FBFEFC0EFB1C330CFB07F744EA0344F1
:101D7800A7424DD92C190CF1FF3304D2A74202D93E
:101D8800ACF102032C44E41B43EA0040C0E7C2F173
:101D980020039540944020FA03F12EFA03F34FEA0A
:101DA800154E9040AFB20343B1FBFEFC0EFB1C1076
:101DB800190C0CFB07F841EA0041884522D969183B
:101DC8000CF1FF3004D2884502D9ACF10200294455
:101DD800A1EB08019BB2B1FBFEFC0EFB1C110CFB36
:101DE80007F743EA01439F420ED9EB180CF1FF3184
:101DF80004D29F4202D9ACF102012B44DB1B41EA19
:101E0800004193E76046E3E76146F7E76046A4E7E9
:101E18006346B8E7834206D916B9002108467CE72D
:101E2800C6E900E0F9E7B3FA83F78FB9834201D333
:101E3800724508D8BEEB020460EB030301209C4600
:101E48001EB9002169E73846FAE7C6E9004CF8E709
:101E5800C7F1200CBB400EFA07F522FA0CF42EFA53
:101E68000CF1BA401C4320FA0CF3B8404FEA14496D
:101E780001431FFA84FEB3FBF9F809FB18300B0C79
:101E880008FB0EFA43EA00439A4540D9E31808F1E3
:101E9800FF3004D29A4502D9A8F102002344A3EBEB
:101EA8000A0389B2B3FBF9F809FB183308FB0EFEE5
:101EB80041EA03418E452CD9611808F1FF3304D259
:101EC8008E4502D9A8F10203214443EA0040A1EB60
:101ED8000E01A0FB02984145CE46434602D306D1E7
:101EE8004D4504D20138B9EB020E68EB0403002E0D
:101EF800A7D0B5EB0E0261EB030101FA0CFC22FA44
:101F080007F3F9404CEA0303C6E9003199E7404674
:101F1800C5E74346D9E700002DE9F04F8846D0F8D9
:101F2800201182460B6B16468FB053B1062218312A
:101F380006F1200033F0E4FD18B901200FB0BDE828
:101F4800F08F504604A9D8F86050D8F88040D6F8E9
:101F580080704FF073FD002852D1DDF820B0BBF13E
:101F6800000F04D1DDF81CB0BBF1000F27D042F2FE
:101F78000F71099B049A8B420AD16FF47A63D318C4
:101F880040F2657293428CBF6FF058036FF05B03A9
:101F98004046ABEB03094DF038F8D8F88C200346DF
:101FA80008F194010AB9D8F89020D8F850005D4695
:101FB800CDE90090504625F011FCCB46044604F5C7
:101FC8009C530833BB42B8D3336DB3F57A6F1ADD2F
:101FD800D8F85030B3F57A6FACBF4FF0000A4FF025
:101FE800010A002D12DB07F59C5308339C4200F2CE
:101FF800CB80BBF1190F00F3C7804FF0020B3AE01A
:102008004FF0000BDBE74FF0000AEAE7336E03EB13
:102018004A03AB4215DA3846FEF7DCF9804620461B
:102028008946FEF7D7F94FF033325B4BFEF74CFA8F
:1020380002460B4640464946FEF7B8FC002840F0E9
:10204800A38007F59C530833A342C0F09D80BBF1E1
:10205800190F00F3998015F1550F31DB15F1500F69
:10206800CBDB15F14B0F2EDB15F1460FB4BF4FF04C
:10207800040B4FF0050B2046FEF7ACF980463846B6
:102088008946FEF7A7F902460B46CDE9022300224E
:10209800424BFEF719FA02460B4640464946FEF700
:1020A800A3FC98B10BF10A0BBAF1000F01D0ABF108
:1020B800020B306E401B5845B4BF002001203DE79D
:1020C8004FF0010BD7E74FF0030BD4E74FF0333253
:1020D800DDE90201304BFEF7F7F902460B464046B0
:1020E8004946FEF781FC10B10BF1050BDCE728A38C
:1020F800D3E90023DDE90201FEF7E6F902460B46C3
:1021080040464946FEF770FC10B10BF1020BCBE7D5
:10211800BC4202D90BF1010BC6E700221F4B404617
:102128004946FEF7D1F902460B46DDE90201FEF702
:102138005BFC10B1ABF10A0BB6E74FF03332164B2C
:1021480040464946FEF7C0F902460B46DDE9020162
:10215800FEF74AFC10B1ABF1050BA5E70CA3D3E9D8
:10216800002340464946FEF7AFF902460B46DDE933
:102178000201FEF739FC10B1ABF1020B94E7BC4247
:1021880038BF0BF1FF3B8FE70020D7E6AFF30080A5
:102198009A9999999999F13F3333F33F0000F83FA1
:1021A800C1F30A5C02460B462DE9F041ACF2FF355B
:1021B8000C460646132D34DC002D20DBDFF8D080DA
:1021C8000F4648FA05F801EA080C5CEA000C2DD025
:1021D8002DA3D3E90023FDF7C1FF00220023FEF75A
:1021E80003FC40B1002C03DD4FF480132B411F4446
:1021F80027EA0804002621463046BDE8F08122A3DC
:10220800D3E90023FDF7AAFF00220023FEF7ECFB29
:102218000028F0D0002C33DB3443EBD000261D4CD3
:10222800E9E7332D06DDB5F5806F26D0104619464F
:10223800BDE8F081ACF2134C4FF0FF3727FA0CF7EA
:102248003842F3D010A3D3E90023FDF787FF00221B
:102258000023FEF7C9FB0028CDD0002C334609DD4A
:10226800142D06D0C5F134050122AA4013449E421C
:1022780000D9013423EA0706BDE7FDF76FFFD7E76A
:1022880000264FF00044B6E79C7500883CE4377E92
:10229800FFFF0F000000F03FC1F30A5C02460B4647
:1022A8002DE9F041ACF2FF350C460646132D32DC21
:1022B800002D20DBDFF8E0800F4648FA05F801EA38
:1022C800080C5CEA000C2BD031A3D3E90023FDF7FE
:1022D80045FF00220023FEF787FB40B1002C03DAFC
:1022E8004FF480132B411F4427EA08040026214697
:1022F8003046BDE8F08126A3D3E90023FDF72EFF81
:1023080000220023FEF770FB0028F0D0002C27DB0A
:1023180000263446EBE7332D06DDB5F5806F1CD07B
:1023280010461946BDE8F081ACF2134C4FF0FF3768
:1023380027FA0CF70742F3D015A3D3E90023FDF7DA
:102348000DFF00220023FEF74FFB0028CFD0002C02
:1023580033460CDB23EA0706C9E7FDF7FFFEE1E792
:1023680024F0004426430DD14FF00044BFE7142D5C
:1023780006D0C5F134050122AA401344B342E9D27C
:102388000134E7E70026054CB1E700BFAFF3008052
:102398009C7500883CE4377EFFFF0F000000F0BF0B
:1023A800F8B5C1F30A5604460D4617460B462EBB30
:1023B80021F00043034320D02D4B0022FEF784F880
:1023C8002C4B04460D469F4241DBC1F30A560B468F
:1023D800363EBA1940F2FE718A4217DC002A30DC18
:1023E80012F1350F1EDB244E363220461E40234B99
:1023F80046EA02510022FEF767F8F8BD40F2FF7284
:102408009642E6D10246FDF7A9FEF8BD14A3D3E92A
:102418000023ED0F1A481C4665F3DF742146FEF7CA
:1024280053F8F8BD05F00044164844F0D27141F461
:10243800B7310DA3D3E9002341F01F01FEF744F89B
:10244800F8BD0D4E20461E4046EA0251F8BD06A3CF
:10245800D3E90023FEF738F8F8BD00BFAFF30080DA
:102468009C7500883CE4377E59F3F8C21F6EA501BD
:1024780000005043B03CFFFFFFFF0F800000903C7E
:102488009C75008859F3F8C22DE9F04F016C9BB098
:1024980016461F46279D0490CDE9026749B1426C54
:1024A8000123044693404A608B603BF0DDFA002329
:1024B8002364B7F10009C0F2B68000232B607E4B7D
:1024C80033EA090300F0BA800022DDE90234184635
:1024D80021460023CDE90801FEF75EFA804668B17F
:1024E8000123269A1360289B13B1744B289A136012
:1024F800DFF8CC8140461BB0BDE8F08F18AB0498DC
:10250800019319AB0093DDE908233BF0B3FE834642
:102518005FEA195540F0A980DDE91885454405F2C0
:102528003243202B40F34D82C3F1400309FA03F9EB
:1025380005F2124326FA03F349EA0300FDF74AFFBE
:10254800013D0123A1F1F871109300225D4BFDF7C5
:1025580003FE53A3D3E90023FDF7B6FF52A3D3E943
:102568000023FDF7FBFD06460F462846FDF742FF10
:102578004FA3D3E90023FDF7A7FF02460B463046D9
:102588003946FDF7EBFD06460F46FEF799FC00229B
:102598008246002330463946FEF708FA002840F004
:1025A8000382A8EB0508BAF1160F08F1FF3306936A
:1025B80000F2A781444E06EBCA06DDE90801D6E918
:1025C8000023FEF7F3F9002800F0848000230AF1C5
:1025D800FF3A0F9308F1FF33002BC0F299810023D3
:1025E8000A93BAF1000F7BDA0A9BCDF82CA0A3EB73
:1025F8000A030A93CAF100034FF0000A0E93249BC2
:10260800092B77D8052B40F3E181043B002724935D
:10261800249B023B032B00F25986DFE813F0540495
:10262800510447042C04012329F000492B60224B54
:10263800CDF80C9033EA09037FF446AFC9F31309C8
:1026480042F20F73269A59EA060913601DD0289B97
:10265800DFF87880002B3FF44DAF08F10303289A88
:10266800404613601BB0BDE8F08FDDE90812CDF8D5
:102678004080A5F2FF35C2F313030846DDF86080F9
:1026880043F07F5141F440115FE7289BDFF8408019
:10269800002B3FF42FAF08F10803E0E7AFF3008009
:1026A80061436F63A787D23FB3C8608B288AC63F50
:1026B800FB799F501344D33F0000F07FFDAA06002A
:1026C800FCAA06000000F83F10C6050098AB0600FB
:1026D8008CAB0600B8F1000F40F3B1840F900A905C
:1026E800069BCDF82CA05344069300230E93249BFD
:1026F800092B87D900230127CDE924334FF0FF3375
:102708000C970793049B00215964079B1193049825
:102718003BF084F90590002800F0E185079B0E2B1B
:102728008CBF002707F00107DDE904321A64002F87
:1027380000F01B810B9A002A40F34A81BC4E02F03C
:102748000F03D4054FEA221806EBC303D3E9006749
:1027580040F17083B74B08F00F080325D3E908232D
:10276800DDE90801FDF7DAFFCDE91201B8F1000F44
:1027780012D0DFF8C09218F0010F08D03046394661
:102788000135D9E90023FDF79FFE06460F465FEAAB
:10279800680809F10809EED132463B46DDE9120125
:1027A800FDF7BCFF804689460F9B43B10022A24B30
:1027B80040464946FEF7FAF8002840F04784284684
:1027C800FDF718FE42464B46FDF77EFE9B4B002266
:1027D800FDF7C4FC079B0646A1F15077002B00F0DB
:1027E800AB80079B0B9C1293059B404612995D1C7E
:1027F800CDE914678E4E06EBC10353E90212CDE909
:1028080016124946FEF75CFB00F13007FDF7F2FDB2
:1028180002460B4640464946FFB2FDF79DFC8946F5
:102828000C998046DDE91623002900F00F8100206D
:102838008349FDF773FFDDE91423FDF78DFC059E41
:1028480042464B46377006460F46FEF7CDF800283D
:1028580040F02F850023CDF858A0CDF850B09A4607
:10286800DDF848B012942BE00AF1010ADA4580F24B
:10287800BD84304639460022724BFDF725FE002202
:10288800704B06460F4640464946FDF71DFE8946F1
:102898008046FEF715FB0446FDF7ACFD02460B46E5
:1028A800303440464946FDF757FC32463B4605F86A
:1028B800014B80468946FEF779F8002840F09C8451
:1028C80042464B4600205C49FDF746FC32463B46F3
:1028D800FEF76CF80028C7D0DDF850B02F46129CE0
:1028E800059902E08F4200F05F843A4617F8013DEF
:1028F800392BF7D00133DBB23B70DDF81480059239
:102908006BE101230F9308F1FF33002BBFF667AE8D
:10291800C8F101030A930023069362E62846FDF7EF
:1029280069FD42464B46FDF7CFFD0022434BFDF7BC
:1029380015FC0646A1F15077404649460022424B15
:10294800FDF70AFC32463B4680468946FEF74CF8BE
:10295800002840F0AD8340464946324607F100431F
:10296800FEF724F8002840F0D5810B9A199B0E2A0F
:1029780002DC002B80F2AD810C9A002A00F0B580B1
:10298800249A012A40F38583079A0E9B551EAB4271
:10299800C0F2C782002AA3EB050580F25B840A9B7C
:1029A800079AA3EB0208C9E25046FDF723FD324619
:1029B8003B46FDF7F1FF00287FF4F3AD0AF1FF3A3B
:1029C800EFE5C3F1200306FA03F0B7E501271FE698
:1029D80000F0A3820B9B164E5D4205F00F0306EB39
:1029E800C303DDE90801D3E90023FDF76DFD2E11CE
:1029F800CDE9120100F052840E4C002302258046D6
:102A08008946F00709D5404649460135D4E90023EF
:102A1800FDF75AFD3B4680468946761004F10804C6
:102A2800EFD1002B7FF4C0AEDDE91289BCE600BF10
:102A380010C60500E8C505000000F03F00001C4076
:102A48000000E03F0000244000001440DDE91401CC
:102A5800FDF73AFD059B1F70129B012BCDE90C0178
:102A680000F00984129F059BCDF840A01F44002266
:102A7800AA4B40464946FDF727FD89468046FEF7A2
:102A88001FFA8246FDF7B6FC02460B460AF1300AE9
:102A980040464946FDF760FB05F801ABAF4280466A
:102AA8008946E4D1DDF840A000229D4BDDE90C0108
:102AB800FDF754FB42464B46FDF778FF002840F0EF
:102AC8007B8300209649DDE90C23FDF745FB424650
:102AD8004B46FDF789FF002840F01982199B002B0F
:102AE80003DB0B9B0E2B40F3F58000230E9DDDF8D6
:102AF80028801E460C93B8F1000F0DDD06990029B9
:102B08000B4609DD41450A9AA8BF4346D21AA8EBED
:102B18000308CB1A0A9206930E9B53B10C9B13B170
:102B2800002D40F01E8259460E9A04983BF084F915
:102B38008346012104983BF09FF80746BAF1000F3D
:102B480040F06381249B012B40F37A81012306998D
:102B58000B4413F01F0308D0C3F12002042A00F32A
:102B6800B5810AD0C3F13C0300E01C230A9A9844BB
:102B78001A440A92069A1A4406920A9B002B05DD0B
:102B880059461A4604983BF0B1F98346069B002B38
:102B980005DD39461A4604983BF0A8F90746249BF8
:102BA800022B0F9BD4BF00250125002B40F0BE80CF
:102BB800079B002B24DC1DB3079B002B00F08F81A3
:102BC800259BDDF81480DC43394604983AF04CFF25
:102BD8001EB1314604983AF047FF594604983AF036
:102BE80043FF00220599631C0A70269A1360289BEC
:102BF800002B3FF47FAC404619601BB0BDE8F08F56
:102C08000C9B002B00F0AF80B8F1000F00F3C081DF
:102C1800BAF1000F40F0D382B146059D079C6B1EA8
:102C28001C44029B089403F00103049C0A93394650
:102C380058463AF05DF93146824658463BF0CAF9A3
:102C48004A463946804620463BF0E4F9C2680146C8
:102C58000AF13003002A40F0A281CDE90603584664
:102C68003BF0B8F90699069020463AF0FDFE249B01
:102C7800069A52EA0301079B40F0C2810A9A002A89
:102C880000F0F282B8F1000FC0F2AD81089AA846B0
:102C9800AA4208F8013B00F0D282594600230A22D2
:102CA80020463AF0EBFE4E45834631464FF000038E
:102CB8004FF00A02204600F09D813AF0DFFE4946B7
:102CC800064600230A2220463AF0D8FE45468146A9
:102CD800ADE7144E0B9B06EBC306D6E90034CDE9ED
:102CE8000234259B002B80F2E881079B002B00F320
:102CF800E481079B73B900220B4BDDE90201FDF764
:102D0800E3FB02460B46DDE90801FDF759FE002802
:102D180000F0CE8100273E4652E700BF0000244065
:102D28000000E03F10C60500000014403946584630
:102D38003BF050F90028BFF63BAF0B9B59460A22DF
:102D48000498013B0B9300233AF098FE0C9B8346B2
:102D5800002B40F09282119B002B119B079302DC01
:102D6800002D7FF429AFDDF814800125079CDDF8DC
:102D7800109007E0594600230A2248463AF07EFEA2
:102D880001358346394658463AF0B2F8A54200F173
:102D9800300308F8013BEDDB079A0025002ACCBF79
:102DA80090464FF00108059A90445946012204982C
:102DB80002933BF09BF8394683463BF00BF9002819
:102DC80040F3E481059A02E0904500F0D48118F8B8
:102DD800013CC24608F1FF38392BF5D001330B9C72
:102DE80088F80030394604983AF03EFE002E00F08C
:102DF800C8812DB1B54203D0294604983AF034FE73
:102E0800DDF81480CDF814A0E3E601465246049894
:102E18003BF012F8249B0746012B40F395804FF0B6
:102E2800000A3B6907EB830318693AF0D1FEC0F149
:102E380020038CE6DDE908340225CDE9123495E457
:102E4800029B002B7FF482AEDDE90212C2F313036A
:102E5800002B7FF47BAEAD4B134033B10A9B01339B
:102E68000A93069B013306930123BAF1000F40F041
:102E7800F9819A466AE601230C93259B0B9A134421
:102E880011930133012B1D460793B8BF0125172D58
:102E980040F31382012204235B001146013203F13F
:102EA8001400A842F8D9049B596430E401230C9318
:102EB800259B002B40F3BE801D4611930793E6E740
:102EC80000230C93D9E700230C93F1E7C3F11C030B
:102ED8000A9A19441A4498440A9206914DE63946CA
:102EE800052204983AF0CAFD0746584639463BF091
:102EF80071F800287FF764AEDDF81480059B0B9C01
:102F0800013301340593312388F800305CE63A46F2
:102F180017F8013D302BFAD0EFE40225DDE90889E6
:102F280042E40E9B0E95EB1A00259A44DDE9063221
:102F3800134406930A9B984613440A930121049864
:102F48003AF09AFE0646D6E5029B002B7FF467AF5F
:102F5800DDE90201C1F313030A46002B3FF47BAFFE
:102F68005DE7049C31462A4620463AF065FF06464E
:102F78005A46204631463AF0ADFE59468346204629
:102F88003AF072FD0E9B5B1B0E933FF4D2ADCAE57F
:102F98003146424604983AF0A9FF064638E60498B6
:102FA80006933AF061FDB8F1000F069B08DB029A20
:102FB800249902F0010248EA010852EA08022ED1D7
:102FC80059460122049802933AF090FF3946834605
:102FD8003BF000F80028029B40F36581392B00F094
:102FE80031810AF13103AA460B9C35464E460AF850
:102FF800013BF7E63AF042FD45460646814616E6AD
:10300800B8F1000FC0F25E81249948EA01080A99D4
:1030180051EA080800F05681002A7FF737AE392BAD
:1030280000F01081AA46013335460B9C4E460AF83B
:10303800013BD7E6012325930793FFF763BBC8F14C
:10304800010306900F900A93FFF74ABB079B002BDA
:103058003FF464AC119B002B7FF787AC0B9A40467A
:1030680049461293541E2A4B0022FDF72DFA80463A
:103078008946681CFDF7BEF942464B46FDF724FA1F
:103088000022244BFDF76AF80646A1F15077FFF7B6
:10309800ABBB109A002A00F08B8003F23343069AE8
:1030A8000E9D1A4406920A9A90461A440A9245E7D7
:1030B8000027DDF814803E4620E7DDE90889DDE9D0
:1030C800022340464946FDF729FB059FFDF7F8FE18
:1030D8000546FDF78FF9DDE90223FDF7F5F90B4603
:1030E800024649464046FDF737F805F1300307F830
:1030F800013B079B012B00F08980CDF818B0012611
:10310800DDF81C90DDE902AB22E000BF0000F07F93
:103118000000244000001C4052465B4620462946D9
:10312800FDF7FCFA0136FDF7CBFE8046FDF762F9A4
:1031380052465B46FDF7C8F90B460246294620462B
:10314800FDF70AF808F13003B14507F8013B5AD0FA
:103158000022704BFDF7B8F90022002304460D4603
:10316800FDF71AFC0028D7D0DDF818B0DDF8148078
:103178000B9C059731E50B9C3123059A013413709C
:1031880030E6DDF81480CDF814A026E503D1029BC3
:10319800DB073FF517AE18F8013CC24608F1FF38C7
:1031A800302BF8D00B9C1DE601343123FFF7A4BB6C
:1031B800189BC3F1360372E70599FFF796BB716850
:1031C80004983AF02BFC0546002800F08F803369FC
:1031D80006F10C010C3002339A00FDF707FD294671
:1031E800012204983AF082FE814616E5DDF858A0DF
:1031F800DDF850B0FFF7B9BBDDF81480DDF850B04A
:10320800129C0595E9E4DDF818B0454602460B46E0
:10321800FCF7A4FF80468946DDE90223FDF7E4FBBD
:1032280048B940464946DDE90223FDF7B5FB0028C9
:103238009CD0E9079AD50B9C0599FFF756BB3546F4
:103248004E46B2E5A84639233546059A4E4608F853
:10325800013BBCE5069B134406930A9B984613441E
:103268000A936BE69A46DCE5392BEBD0B8F1000FF0
:103278003FF7B7AEB7E62F4616E4314600230A22D9
:1032880004983AF0FBFB119B0646002B119B079311
:103298003FF7BAAC002D7FF48FACB5E4DDE91289B5
:1032A8000225FFF781BA7FF49EAEDA077FF59BAE61
:1032B80094E6DDF8148005958FE40021049B596499
:1032C800FFF725BA002A3FF77BAE8CE6049B002562
:1032D800184629465D643AF0A1FB059068B90E4B83
:1032E80000224FF4D5710D4832F080F802460A4B9F
:1032F80040F2EA21094832F079F8DDE904322595EF
:103308001A644FF0FF33012211930C920793FFF7D1
:103318002CBB00BF000024409CAB0600B0AB0600ED
:103328002DE9F04F1C46794B9FB00E460025834689
:10333800186807921A95089033F028FC0021024675
:1033480033460020CDE904019846199313F801ABE0
:10335800BAF12D0F5ED801A151F82AF0FB34000014
:103368001D3400001D3400001D3400001D34000011
:103378001D3400001D3400001D3400001D34000001
:103388005133000051330000513300005133000025
:10339800513300001D3400001D3400001D340000AE
:1033A8001D3400001D3400001D3400001D340000D1
:1033B8001D3400001D3400001D3400001D340000C1
:1033C8001D3400001D3400001D3400001D340000B1
:1033D8001D3400001D3400001D340000513300006E
:1033E8001D3400001D3400001D3400001D34000091
:1033F8001D3400001D3400001D3400001D34000081
:103408001D3400001D340000CF3A00001D340000B8
:10341800E93A000000230993BAF1300F00F06882FE
:1034280000230A93AAF13003092B00F256840027DF
:1034380040463D463C460130082C07EB870104F125
:10344800010405EB850C199090F800A0CCBF03EBA4
:10345800410703EB4C05AAF13003092BEBD9089976
:10346800089233F0C1FB089A8146002850D1199B75
:1034780001460894981819909B5CA3F13002092A18
:1034880000F2F082013192461998002A40F0F8843F
:10349800431C19934378F0E74FF0010EB31C1993BE
:1034A800B378A3F1300CBCF1090F00F2F582199A38
:1034B800302B0B9240F02B83013219921378302B6A
:1034C800FAD0A3F131000B92082840F21E830022A3
:1034D8000C9254BB0A9A0A4340F09882BAF1000F42
:1034E80007D1692B00F0398340F318826E2B00F066
:1034F8001B82079B4FF000084FF0000903B11E60C4
:10350800404649461FB0BDE8F08F00BF5CAE0600DC
:103518002AF02002002153460894452A89468A4603
:1035280000F0AD820C91002CD4D0089A2846A2460F
:103538001346002A08BF23460893FCF74BFF0B46A7
:103548000246102CCDE904230C9BA8BF4FF0100AAB
:10355800092CA3EB09030B9317DD544B03EBCA03A8
:1035680053E91223FCF7B0FF024638460F461646C9
:10357800FCF730FF02460B4630463946FCF7EEFDB5
:103588000F2CCDE9040100F3E1810B9B002B00F027
:1035980097820B9B40F3A782162B40F39A84C4F1C1
:1035A80025030B9A934280F2DA84A4EB0A061644A8
:1035B80016F00F000AD03D4901EBC001DDE90423F4
:1035C800D1E90001FCF780FFCDE9040136F00F03D3
:1035D8004ED0B3F59A7F00F34684102B4FEA23169A
:1035E80040F3B285DFF8C8E04FF0000CCDF8289022
:1035F8007746E246F146DDE9042316F0010F10464E
:1036080019464FEA66060AF1010A07D0D7E90023EE
:10361800FCF75AFF4FF0010C02460B46012E07F14A
:103628000807EAD1CE46DDF82890BCF1000F01D09A
:10363800CDE90423059B0EEBCA0E1E4EA3F154736D
:103648000593DDE90423DEE90001FCF73DFF1A4B91
:103658000A460B40B342CDE9040100F2048417493D
:103668008B4240F2FE844FF0FF33154ACDE9043215
:1036780000230A932346089A4146584600953AF093
:103688004FFA1590002800F0EE830B9A4FF0000ACD
:103698000C9B002ACDF820A0A9EB0303A8BF0023A8
:1036A8000C9322EAE2731493E2E000BF10C605000F
:1036B800E8C505000000A07C0000F07F0000907CB9
:1036C800FFFFEF7FD21A1F2AA4EB020400F3C68281
:1036D800012300259340984626443C440A9BA74270
:1036E8001E443B46A8BF2346B342A8BF3346002B1F
:1036F80002DDE41AF61AFF1A0C9B002B00F3548221
:10370800002C00F36A820B9B002B00F39D82002E95
:1037180000F38E82002F08DD51463A4658463AF0AB
:10372800E5FB8246002800F08C824A461A995846E2
:103738003AF070FC0890002800F08382089A002371
:10374800D168D3600D9151463AF044FC0028C0F28C
:10375800C584059F00F02284514608983AF0EAFD96
:1037680000224FF0804304460D46FDF729F9002852
:1037780000F00A820D9B002B40F07C82049B002BFA
:1037880040F06183C7F31303002B40F0E682002268
:10379800AB4B20462946FDF709F9002840F0F58390
:1037A8002046A84B29460022FCF78EFE03460C460D
:1037B8000E90CDE9123401F100430F93A24EA34BB2
:1037C8003E409E42DDE90E4500F05B820A9B23B332
:1037D800B6F1D46F21D8DDE9127897A3D3E9002395
:1037E80038464146FDF7ECF8A0B141463846FDF7AA
:1037F80005F9012838BF0120FCF7ECFD0D9BCDE948
:103808001201002B40F0378301F100431690179303
:10381800DDE9164505F1D6639D1BDDE910783846CC
:1038280041463AF0A7FC02460B4620462946FCF7DB
:103838004BFE3A464346FCF791FC0C46CDE90401A1
:10384800814B2340B34203D10A9B002B00F08E82A8
:103858001A9958463AF008F9494658463AF004F990
:10386800514658463AF000F9089958463AF0FCF89B
:10387800159C584661683AF0D1F88146002800F056
:10388800E081226904F10C010C3002329200FDF74C
:10389800ADF91CAB584601931BAB0093DDE904342A
:1038A8001A46CDE9103423463AF0E4FC1A90002871
:1038B80000F09C81012158463AF0DEF98246002842
:1038C80000F0BF811B9B002BC0F2AE810C9A149EA6
:1038D8009F180A9A1C9C9B1A5D4A2344C4F136041B
:1038E800013B9342FFF6EEAE012300259846F3E62E
:1038F80098F8013003F0DF03582B00F07582434637
:103908000133199393F800A0BAF1300FF8D0984614
:10391800BAF1000F7AD001230A9383E5492B00F00E
:103928001C814E2B7FF4E5AD4A4919A83BF076FC83
:1039380000283FF4DEAD199B1B78282B00F07E830E
:1039480045483BF077FD8046894663E0A4EB0A06CC
:103958000B9B1E44002E3FF72BAE3FF489AE7642F8
:1039680016F00F020AD03D4B03EBC203DDE9040158
:10397800D3E90023FCF7D2FECDE9040136113FF468
:1039880077AE1F2E3FDC16F01003354F4FF0000CBA
:1039980018BF6A230A93DDE9042316F0010F1046C5
:1039A800194607D0D7E90023FCF78EFD4FF0010C2C
:1039B80002460B46761007F10807EED1BCF1000F5E
:1039C80001D0CDE904230A9BA3B1DDE90401C1F3C9
:1039D8000A52C2F16B03002B0ADD1F2B40F3FA8356
:1039E8000020342B049040F321844FF05C7305933E
:1039F8006A230A9300220023DDE90401FCF7CCFFC7
:103A080000283FF437AE2223CBF800304FF00008EF
:103A18004FF00009079A0AB1199B1360099B002B04
:103A28003FF46EAD09F100434046994649461FB040
:103A3800BDE8F08FAFF300800000C0FFFFFFDF415B
:103A48000000F03F0000E03F0000F07F0000E07F52
:103A580002FCFFFFB8AC0600DCB9060010C6050082
:103A6800D8C605004FF0010A23F02002452A7FF44A
:103A78002EAD44EA01030A9A13433FF43AAD199E66
:103A8800731C199373782B2B00F023812D2B3FF493
:103A980003AD4FF0000E04E5002219960C9218E5CC
:103AA8001C9A03F2334304921D9A22F4801242EACC
:103AB80003530593210703D5059B43F00043059362
:103AC800DDE90489A6E70023099308F101031993A6
:103AD80098F801A0BAF1000F3FF40BAD98469BE4AB
:103AE80001230993F1E71633FFF630AF0C9BA9EBDE
:103AF8000309B34B03EBC903DDE90401D3E9002350
:103B0800FCF70CFE8046894684E7A3F1300C0B9B3A
:103B1800581C19905B78A3F13002092A00F2D18170
:103B280001300CEB8C0C199003EB4C0C0378ACF1C6
:103B3800300CA3F13002092AF2D90B9A801A08280E
:103B480040F3BF8144F61F620C92BEF1000F3FF4B0
:103B5800C0AC0C9A52420C92BBE49A4919A83BF0AB
:103B68005DFB00283FF4C5AC199B19A89649013B99
:103B780019933BF053FB10B9199B013319934FF07C
:103B88000008DFF8489245E7914B20462946002275
:103B9800FCF79AFC0D9BCDE91201002B65D101F1D0
:103BA80000430E900F9309E651461A4658463AF0DC
:103BB80043F98246002844D001461A9A58463AF0FA
:103BC80089F800283DD00D9058461A9939F04CFFD5
:103BD8000D9B002C1A937FF796AD22461A995846EA
:103BE8003AF084F91A9000287FF48DAD4F460546C7
:103BF80022234FF00008DFF8D491CBF80030294693
:103C0800584639F031FF3946584639F02DFF5146AC
:103C1800584639F029FF1599584639F025FF089973
:103C2800584639F021FFF5E6149A0C9FD61A50E64B
:103C38004946324658463AF059F9814600287FF4F9
:103C480069AD4F461A9DD3E74946149A58463AF04B
:103C5800F3F8814600287FF45AADF2E75D4AD31A9B
:103C6800012202FA03F5904636E5DDE91234CDE982
:103C78000E34A3E50023584CCDE90E34CDE91234B7
:103C88009CE5A7F15473514F0593DDE9044520469F
:103C980029463AF06FFADDE90E23FCF715FC2B46AE
:103CA8002246FCF75BFA4D4B0F409F42CDE90401D9
:103CB80040F2DD8003F15473DDE91001994202D12D
:103CC800B0F1FF3FBDD04FF0FF33454ACDE9043294
:103CD800BEE54FF0000EFFF7E1BB089940460B9296
:103CE80032F082FF0B9A089048B1002253461746DB
:103CF800924615461146914614460892B4E6199B19
:103D0800981819909B5C302B40F027810246114689
:103D1800013219921378302BF9D0C0F10100014417
:103D2800A3F13102082A10D8DDF864800025A3F138
:103D3800300A01F10109012440462F4605EB8505AB
:103D480000210AEB4505FFF7A3BB4FF000094FF030
:103D5800010A4C464F464D4686E60023214CCDE9E4
:103D68000E3400231C4CCDE9123427E5DDE9125648
:103D7800C4F3130728463146FDF768FFFCF776FBC6
:103D880002460B4628463146FCF7E6F9049D0D9E8F
:103D980004462E430D46374343D107A3D3E90023F6
:103DA800FCF704FE00283FF453AD4F461A9DDDE9A9
:103DB800048924E7AFF300809535A094FFFFCF3F37
:103DC80010C60500ACAC0600B0AC06000000F07FE1
:103DD8000000E03FE2FBFFFF0000F03FFFFF9F7C99
:103DE800FFFFEF7F0000F0BF099B19A90294584616
:103DF80001931AABB04A00931BAB3AF013FF10F0D3
:103E0800070504463FF402AE062D7BD1079A12B18E
:103E180008F1010313604FF000084FF00009FFF7A5
:103E28006FBBA1A3D3E90023FCF7C0FD0028BCD1D8
:103E3800204629469EA3D3E90023FCF7D5FD002898
:103E48003FF406ADB1E7049B012B86D1002F84D146
:103E58004F461A9C222325464FF000084FF00009D0
:103E6800CBF80030CBE62223CBF8003087E601F10F
:103E780054740594E4E4DDE91234CDE91634C7E45A
:103E8800012900F0138204EB010E0EF1FF3CCDF87E
:103E98002CE003E04FEA4E05A4450BD0082C05EBB7
:103EA800850E04F10104F5D907EB8703102CD8BF60
:103EB8005F00F1E7DDF82CE0082C894416DC744635
:103EC8003CE744F61F629445A8BF9446CDF830C03D
:103ED8003BE60B98794901EBC001DDE90423D1E900
:103EE8000001FCF7F1FA8046894693E5BEF1100F10
:103EF80074464FF00001DCBF07EB870702EB47076A
:103F0800FFF7C6BA1A9A3AB135211CA83AF03CFA1A
:103F180058461A9939F0A8FD013D1B9B042D3FF620
:103F2800C9AD01A252F825F0A93A0000593F000096
:103F3800533F0000453F0000A93A00004FF0FF330F
:103F48006FF00040CDE90430B4E55D4B0593B1E571
:103F58001C9B04931D9B0593ACE50899E0E6C4F10E
:103F68000F04564D05EBC401DDE90423D1E9000136
:103F7800FCF7AAFA0B9B1C1B05EBC405D5E900232B
:103F8800FCF7A2FA8046894644E500234D4CCDE96A
:103F98000E3400234C4CCDE912340FE43B460D9807
:103FA800C4464F46AE464949C3F31302DDE91089BA
:103FB80000285BD08A4200F0FB80B5BB049A1CEA5B
:103FC800020F35D04046494604933AF0D3F80A9B8D
:103FD80004460D46002B00F01F81049BC3F30A53CF
:103FE800C3F16B06002E40F36481394C002204EBC8
:103FF8000653FCF769FA02460B4640464946FCF769
:10400800ADF81A9C8046894640464946314B002205
:10401800FCF75AFA0B4625468046034389467FF447
:10402800EEAD2223CBF80030E9E51EEA030FC9D133
:104038001A9C0A9B2546002BE6D1E0E519A81CAA84
:1040480025493BF005F905287FF47AAC1D9B43F020
:10405800FF4343F4E00305931C9B0493DDE90489C3
:10406800D8E402F154730593FFF702BB002A71D11B
:10407800DDE904452246002C40F0B4800A9A002A63
:1040880040F0F08025F00044240D2405A4F58014A8
:104098001A9D6FEA14536FEA035305934FF0FF33E9
:1040A8000493DDE90489AAE59535A094FFFFDF3F75
:1040B80035E5AF350000E03FD0AC060010C605007E
:1040C8000000F07F0000E0BF0000E03FFFFF0F00AE
:1040D8000000F03F00005039BCAC06000D9B4F4675
:1040E800DDE90401DDE910890343A1D1C1F313031C
:1040F800002B9DD121F00044240D2405B4F1D66F86
:10410800264695D9089A536913B91369012B8FDD8F
:1041180008990122584639F0E9FE5146089039F0CD
:1041280059FF002884DD0A9B002BAFD0A6F5801329
:104138001A9C6FEA13536FEA035305934FF0FF334A
:104148000493DDE904895FE74FF0000ADFF87CE1BA
:10415800FFF770BA002D48D1049A1CEA020F3FF409
:1041680067AF4046494604933AF004F80A9B002B8F
:1041780040D0049BC3F30A53C3F16B06002E40F3EF
:10418800A280534C002204EB0653FCF79DF902462B
:104198000B4640464946FBF7DFFF002200238046D6
:1041A8008946FCF7F9FB00287FF453AE1A9C2BE7ED
:1041B800DDE904010A9A0446002A40D10246013288
:1041C8006DD0BEF1000F7FF430AF14EA0C0F3FF44E
:1041D8002FAFF7E64FF0FF3202FA03F3049A1A40C2
:1041E800049205E4BEF1000FB7D01EEA030F3FF4B6
:1041F8001FAFB6E702460B4640464946FBF7ACFF01
:104208001A9C00220023804689462546FCF7C4FBF9
:1042180000283FF4F4AC1DE6404649462B462246AA
:10422800FBF79CFF1A9D80468946E8E4C2F14B02E1
:104238004FF0FF3393400B400593FFF7D9BB254A56
:104248001A40B2F1D46F21D9611CBAD122498B42EC
:104258003FF4F8AC02F58013059300230493DDE9DD
:104268000489E5E61B4E1E40B6F1D66F3FF65EAFF9
:104278001A9DB6F15C7F2C463FF6C6AE22234FF05E
:1042880000084FF00009CBF80030B8E4100D4FF0EB
:10429800FF31C0F16B0081408C4292D1DAE70E4ABF
:1042A80093423FF4CFAC01321A40D3E704F1010E38
:1042B80002E64046494622462B46FBF74FFF1A9C2A
:1042C80080468946A0E602460B4662E7E8C5050037
:1042D8000000F03F0000F07FFFFFEF7F00000000CC
:1042E8002DE9F04F012984468E4687B064D800290D
:1042F80042D033A3D3E9002333A7D7E9006734A515
:10430800D5E900450FF2D00BDBE900AB34A1D1E9C8
:104318000001CDE9042334A3D3E90023CDE9002328
:1043280033A3D3E90023CDE9022333A3D3E9002340
:104338004FF000084FF00009CCE90A01DDE904015B
:10434800CCE90C01DDE90001CCE90E01DDE902014F
:10435800CCE910010020CCE90089CCE90289CCE93C
:104368000467CCE90645CCE908ABCCE91223CCF8C4
:10437800D0E007B0BDE8F08F21A3D3E9002322A73E
:10438800D7E90067CDE9042321A5D5E9004522A393
:10439800D3E900230FF2880BDBE900ABCDE900235A
:1043A80021A1D1E9000122A3D3E90023CDE9022309
:1043B80021A3D3E90023BBE76FF07400D9E700BF5E
:1043C800310BC0FF67263367D89E05C15D9DBBCB07
:1043D80007D57C362A299A6217DD70305A0159911F
:1043E80039590EF7D8EC2F1511155868874AB48E2D
:1043F800A78FF9640D2E0CDBA44FFABE1D48B547F4
:10440800D182E6AD7F520E5108C9BCF367E6096A4E
:104418003BA7CA8485AE67BB1F6C3E2B8C68059B87
:104428002BF894FE72F36E3CF1361D5F3AF54FA5FA
:104438006BBD41FBABD9831F79217E1319CDE05B9E
:1044480008232DE9F04F95B0944C02AF7B61237996
:10445800D90740F1918001210622084603F038FA75
:10446800B0F1000917DA43F080FB6C4688B00368A6
:1044780002AA8B498B48C2E9051303234FF4C251A2
:1044880042F8103F41F049FCA5464FF0FF304FF08D
:10449800FF3130F071F90023834AC7E90623082267
:1044A800484607F1180142F02DFE002817DA43F0BC
:1044B8005CFB6C4688B0036802AA7C497948C2E96B
:1044C800051303234FF4C25142F8103F41F025FC75
:1044D800A5464FF0FF304FF0FF3130F04DF9052180
:1044E800484642F069FE002817DA43F03EFB6C4666
:1044F80088B0036802AA6E496A48C2E90513032313
:104508004FF4C25142F8103F41F007FCA5464FF066
:10451800FF304FF0FF3130F02FF96C4688B002AA17
:10452800644B4FF4C651536141F2920393610323E4
:104538005C4842F8103F41F0F0FB4FF00008A546F8
:10454800484607F1140207F1200142F060FE051EFB
:1045580018DA43F00AFB6C4688B0036802AA564989
:104568005048C2E9051303234FF4C25142F8103FE3
:1045780041F0D3FBA546E3E700214FF4A47030F0E7
:10458800FBF864E7388C07F128063246202307F148
:10459800240106F0C3FF6C468AB002AA474BD661D5
:1045A800C2E9053840F201331384454B4FF41351E7
:1045B8003C4842F8103F41F0B0FBA546002380225A
:1045C8002846CDE900333F4942F000FF041E15DCC0
:1045D80011D043F0CAFA6C4688B0036802AA3A4977
:1045E8003048C2E9051303234FF4C25142F8103F83
:1045F80041F093FBA54608F10108A1E7DFF8C4A044
:1046080000232246CDE900335146284642F035FEC4
:10461800031E2EDA7B6043F0A8FAC7F80CD088B0E6
:1046280002680DF1080B294B4FF4C251CBE9053252
:104638005A4603231B4842F8103FBA6041F06DFB0D
:10464800D7F80CD0284642F0FFFC88B02049BA6859
:10465800CBE905164FF40071ABF81C101D49114841
:10466800CBF810104FF4E25141F057FBD7F80CD0BB
:104678007B68EB4688B09A44E41A02AA16490948AE
:10468800C2E9051303234FF4C65142F8103F41F025
:1046980044FBDD46002CB3D190E700BFD0280020B2
:1046A800DEBB060094C4050001001092FCBB0600A6
:1046B80018BC060036BC060066BC060084BC0600B2
:1046C800040000015C550020A7BC0600C3BC06001E
:1046D800DFBC06000300000106BD060010B588B067
:1046E80000220023CDE90623002307220B4CCDE945
:1046F8000323CDE9013300934FF400622046084BB1
:1047080008492FF0BBF80849204653F0E9FC204639
:1047180008B0BDE8104053F0E8BC00BFF812002014
:1047280049440000005800203ABD06002DE9F04F2A
:10473800574C8BB002AF2379DB0740F1A380554B70
:104748003B6055493A1D012042F074FE3888062224
:10475800012103F0BDF8051E18DA43F006FA6C468D
:1047680088B0036802AA4D49C2E90513032342F839
:10477800103F00234FF4C251494802F0DDFBA54623
:104788004FF0FF304FF0FF312FF0F6FF00214FF4CC
:1047980040302FF0F1FF08223946284642F0DFFC6E
:1047A800002818DA43F0E1F96C4688B0036802AAD9
:1047B8003C49C2E90513032342F8103F00234FF494
:1047C800C251374802F0B8FBA5464FF0FF304FF012
:1047D800FF312FF0D1FF344BFB610223BB6140F264
:1047E800D1464FF00009DFF8C4B0DFF8B4800023E9
:1047F8004FF486512A4807F1180202F09DFB002366
:1048080040F2D14259462846CDE9009942F035FD9B
:10481800041E21DA43F0A9F9EA4688B0036802AA1F
:104828002349C2E90513032342F8103F00234FF43C
:10483800C251404602F080FBD546284642F004FCAF
:104848001C4BFB610223BB6100234FF4825140469D
:1048580007F1180202F070FBEA4688B002AA164B6C
:10486800C2E90534032342F8103F00234FF4C65130
:10487800404602F061FB361BD546C0D12437BD4601
:10488800BDE8F08F002140F6CD402FF075FF52E7CC
:10489800D0280020010001F844BD06004CBD0600E8
:1048A80094C405006ABD060089BD0600C40A00203C
:1048B800A8BD0600C4BD0600E8BD060010B588B056
:1048C80000220023CDE90623002307220B4CCDE963
:1048D8000323CDE9013300934FF400622046084BCF
:1048E80008492EF0CBFF0849204653F0F9FB204633
:1048F80008B0BDE8104053F0F8BB00BF901300208B
:10490800354700000060002002BE06002DE9F04F88
:10491800734C8BB002AF2379DB0740F18D80002404
:10492800704BC7E9013411220221012002F0D0FFA7
:10493800051E18DA43F019F96E4688B0036802AA12
:104948006949C2E90513032342F8103F4FF4C251E5
:104958002346664802F0F0FAB5464FF0FF304FF0B4
:10496800FF312FF009FF08222846391D42F0CAFB03
:10497800002818DA43F0F9F86C4688B0036802AAF0
:104988005B49C2E90513032342F8103F00234FF4A3
:10499800C251564802F0D0FAA5464FF0FF304FF00A
:1049A800FF312FF0E9FE00246E4688B002AA514B71
:1049B800536141F293039361032342F8103F0023AC
:1049C8004FF4C651494802F0B7FAB546DFF82891C6
:1049D80014233B6007F10C06002380224946284631
:1049E8000197009642F0F2FCB0F100082ADDDFF8EA
:1049F800FCA03B688022CDE9006349460023284695
:104A080042F03BFC041E3EDA43F0AFF86C4688B037
:104A1800036802AA3949C2E90513032342F8103F83
:104A280000234FF4C251314802F086FAA54643F0FC
:104A38009CF804686442CBE700214FF4A4702FF07F
:104A48009BFE68E716D043F090F86C4688B0036880
:104A580002AA2B49C2E90513032342F8103F002399
:104A68004FF4C251214802F067FAA54643F07DF899
:104A780004686442002C97DA4FF0FF314FF0FF30A2
:104A88002FF07AFE90E74FF47A7294FBF2F302FB70
:104A98001343A8EB040873B9EB4688B002AA194976
:104AA800C2E90514032142F8101F4FF4C6515046BD
:104AB80002F042FADD46EB4688B002AA124BC2E980
:104AC8000534032342F8103F00234FF4C6515046E3
:104AD80002F032FADD46B8F1000F8AD178E700BF5C
:104AE800D0280020010010930CBE060094C40500D5
:104AF8002ABE060046BE0600DC55002097BE06000A
:104B080077BE0600B5BE0600D1BE060010B588B057
:104B180000220023CDE90623002307220B4CCDE910
:104B28000323CDE9013300934FF400622046084B7C
:104B380008492EF0A3FE0849204653F0D1FA204632
:104B480008B0BDE8104053F0D0BA00BF28140020C8
:104B5800154900000068002005BF06002DE9F04750
:104B6800524C8AB002AF2379DB0740F19980504B51
:104B78003B6050493A1D012042F05CFC3888112204
:104B8800022102F0A5FE051E18DA42F0EEFF6C467F
:104B980088B0036802AA4849C2E90513032342F80A
:104BA800103F00234FF4C251444802F0C5F9A5460E
:104BB8004FF0FF304FF0FF312FF0DEFD082239466D
:104BC800284642F0CCFA002818DA42F0CEFF6C46AC
:104BD80088B0036802AA3A49C2E90513032342F8D8
:104BE800103F00234FF4C251344802F0A5F9A546FE
:104BF8004FF0FF304FF0FF312FF0BEFDE8460226A0
:104C0800304BBE61FB6100234FF486512B4807F1FE
:104C1800180202F091F900214FF420302FF0ACFD7A
:104C2800002440F2D142CDE90044234628462649D3
:104C380042F023FB88B0824602AA4FF00309234BB7
:104C4800C2E9053042F8109F4FF4C65123461B486D
:104C580002F072F9A245C5461EDA42F086FF88B016
:104C6800036802AA1A49C2E9051342F8109F4FF4D3
:104C7800C2512346114802F05FF9C546284642F062
:104C8800E3F9144BC7E906634FF4825123460B48F6
:104C980007F1180202F050F92037BD46BDE8F08749
:104CA800002140F6CD402FF067FD5CE7D0280020BA
:104CB800010001F744BD06000FBF060094C40500BB
:104CC8002DBF06004CBF0600D4BF06006BBF060010
:104CD80085BF0600A1BF060010B588B000220023DA
:104CE800CDE90623002307220B4CCDE90323CDE9A8
:104CF800013300934FF400622046084B08492EF018
:104D0800BDFD0849204653F0EBF9204608B0BDE840
:104D1800104053F0EAB900BFC0140020654B0000F2
:104D280000700020CABF0600B0B586B000AF254CA1
:104D3800204653F000F9034668B9234A7A610222F3
:104D48003A614FF48251214807F1100202F0F4F859
:104D58001837BD46B0BD2269A1681368204623F004
:104D6800400313600B684FF420220621984700285F
:104D78000EDB174D2B79DA071BD5A3685B69402139
:104D880020469847002140F6CD402FF0F5FCF1E78A
:104D98006C4688B06A460F4BC2E90530032342F8D7
:104DA800103F00234FF4C251084802F0C5F8A54649
:104DB800CEE723691B685B06A36854BF1B69DB68E1
:104DC800DDE700BF08C00500A5C4060094C40500BF
:104DD800D0280020BDC4060010B588B000220023EA
:104DE800CDE90623002307220B4CCDE90323CDE9A7
:104DF800013300934FF400722046084B08492EF007
:104E08003DFD0849204653F06BF9204608B0BDE83F
:104E1800104053F06AB900BF58150020314D00000A
:104E280000780020E3C4060090B5104BA1B0994269
:104E380000AF18D18168283180233A46012006F056
:104E48006DFB6C4688B06A46094B4FF4E651C2E9DF
:104E580005374FF400739383064B074842F8103F19
:104E680040F05EFFA5468437BD4690BD080004E0CB
:104E7800EDC406000300000194C405002DE9F043C9
:104E880099B000AF05F0A0FF04464422002107F1C5
:104E98001C0030F0F9FE44232146874807F11C0224
:104EA80043F0A6F9022368B1844A4FF48651C7E952
:104EB8000432834807F1100240F032FF6437BD46E0
:104EC800BDE8F0837F4A4FF48651C7E904327C4835
:104ED80007F1100240F024FF3B7F6C46092B98BF76
:104EE800794A88B094BF52F82330784B6A4678499B
:104EF8007348C2E905134FF400739383754B4FF45D
:104F0800E65142F8103F40F00BFFFB69A546052B20
:104F1800D4DD97F850306C46052B98BF6E4A88B0A0
:104F280094BF52F82330694B6A466C496448C2E919
:104F380005134FF400739383664B4FF4E65142F820
:104F4800103F40F0EDFEA54697F851306E46082B0D
:104F580098BF634A88B06C4694BF52F823305B4BC5
:104F68004FF4007925465F4ADFF86881C4E90523D4
:104F7800A4F81C9045F8108F2A464FF4E651504883
:104F880040F0CEFEB546A546574B2A46636107F169
:104F98002403A3614FF4E6514948A4F81C90C4F8CF
:104FA800108040F0BDFE1223B5463A46062107F1AF
:104FB800440006F087FAA5464C4B2A46C4E905305A
:104FC800A4F81C90C4F810804FF4E6513C4840F017
:104FD800A7FEB54697F84A306E46022B98BF444A5A
:104FE80088B06C4694BF52F82330384B414A254666
:104FF800C4E905234FF40073A383364B4FF4E651FD
:1050080045F8103F2A462E4840F08AFEB546FB6C0C
:10501800A546394A4FF4C651C4E9052303232A4655
:105028002361274840F07CFEB54697F852306C461D
:10503800072B98BF314A88B094BF52F82330234BCE
:105048006A462F491E48C2E905134FF4007393833B
:10505800204B4FF4E65142F8103F40F061FEA54660
:1050680097F853306E46022B98BF264A88B06C4694
:1050780094BF52F82330154B234A2546C4E905232B
:105088004FF40073A383134B4FF4E65145F8103FD8
:105098002A460B4840F044FEB5467B6DA5461B4AA0
:1050A8004FF4C651C4E9052303232A460448236163
:1050B80040F036FEB54601E70600565101C5060028
:1050C80094C4050017C506003CCA05008A320700CB
:1050D8002AC506000300000124CA050034C50600DD
:1050E80000CA050047C5060056C5060055C5060096
:1050F80064CA050062C506006BC506007CCA0500C7
:1051080077C5060070CA050084C506008CC5060070
:10511800B0B5364B86B0994200AF05D001339942FD
:105128002DD01837BD46B0BD314C2379D907F8D4F6
:1051380083681B689BB16D4688B06A462D492E4826
:10514800C2E9051303234FF4C25142F8103F40F05F
:10515800E7FDAD46237943F002032371E1E7274BCE
:105168004FF486517B61022323483B6107F110020B
:1051780040F0D6FD237943F001032371EAE71C4C84
:105188002379DA07CDD513F0040582681FD011689A
:105198001B4B1C4A6D468AB0002908BF13466A4655
:1051A8001948D161C2E905034FF400731384174B02
:1051B8004FF4135142F8103F0F4840F0B1FDAD468F
:1051C80023796FF382032371FFF758FEA9E7104B89
:1051D8004FF486517B61022307483B6107F11002B7
:1051E80040F09EFD237965F30003ECE7030056D1F8
:1051F800D02800209AC5060094C40500B1C5060051
:1052080094C6060095C50600BBC50600040000014B
:10521800D9C5060000232DE9F043584D87B05848FA
:10522800C5E90033574B00AF4360574B6C460361E9
:1052380006F0B2FB5548564B4360564B036106F0E7
:10524800ABFB554B554A1B688AB0B3FBF2F36A4671
:105258005349544851615449C2E906134FF4007345
:105268001384524B4FF4135142F8103F40F058FD4D
:10527800A54600214FF400402FF07EFA8CB06A4614
:105288004B494C4BD1614C495361396040F2024162
:105298004A4BB9807968936113624748484B50621A
:1052A800118540484FF4535142F8103F40F038FD03
:1052B800DFF81081A546DFF81091444C05F084FD15
:1052C8002B79014623F003032B714FF0FF33E36181
:1052D8000D2323713E4B4846A3600823237340F2F5
:1052E800FF13E3820123394A23762023C4F8008080
:1052F80042F04FFF022320B34FF48251354AC7E9E9
:10530800043207F110026426264840F009FD002106
:1053180042F267602FF030FAFFF7B0FD2B7999075A
:1053280017D4013EF3D1DB0715D42B4B4FF4825130
:105338007B6102231B483B6107F1100240F0F0FC3F
:10534800BCE7264A4FF48651C7E9043207F1100238
:10535800D9E7DA07B2D5224B4FF486517B61022395
:1053680010483B6107F1100240F0DAFC4FF0FF31C2
:105378004FF0FF302FF000FAA0E700BFD028002040
:10538800EC28002019510000070056D1D828002029
:10539800314E0000080004E03808002040420F00A9
:1053A800EFC5060094C4050016C6060004000001F7
:1053B8005CC606002FC6060000020103A1630700B1
:1053C800050000036AC6060002005651B0280020F6
:1053D80078C6060081C60600B0C606009BC6060051
:1053E8001DC5060010B588B000220023CDE90623AC
:1053F800002304220B4CCDE90323CDE901330093AC
:105408004FF480522046084B08492EF037FA0849D5
:10541800204652F065FE204608B0BDE8104052F024
:1054280064BE00BFF01500201D520000007A002065
:10543800C5C606002DE9F04F91B0009302F00403B1
:105448000293C2F3C2030133840705460E46DDF812
:1054580068800392059340F0BD81041D30B107298F
:1054680009D86FF01B0011B0BDE8F08F01F00706F6
:10547800341DC6F10806009B4FF000094FF0040ADE
:10548800591E4FF0FF334F460193CB465346CDF894
:1054980010900DB1009A22600598002800F3EB8067
:1054A8009948009A824203D398488242C0F0E38028
:1054B800039AA4EB050E92074FEA9E0000F10681BD
:1054C8000F2F00F2B480002D00F0088107F1400290
:1054D8000DEB020C019A0CF8200C0CF8102C049817
:1054E80001300490EAE07A2860D84B280ED8472883
:1054F8005CD829282FD8252855D057D820287DD0E2
:105508002338D0F1000B4BEB000B77E0A0F14C0CEB
:10551800BCF12E0F4AD8DFE80CF0714949494949D6
:105528004949494949494C49494949494949495ACF
:10553800494C4C5A5A5A714C6E497149184C184981
:105548004983804C49494C49800000204FF0000BAA
:105558004FF0040A39E00122A0F12A0C5FFA8CFC12
:1055680002FA0CFC1CEA0E0F48D11CF062502ED136
:105578001CEA020B42D0013C5444CAF1000C04EA74
:105588000C04002D61D0A3EB050CA4446645FFF480
:1055980068AF002868D1042B47D158F8043B236032
:1055A800042304342AE0019A013A01924FF0000BD7
:1055B80024E011F8010C6C2834D1002011F8023CC9
:1055C80083466C2BC4D14FF0080A5346D3E708F141
:1055D800070828F00708073424F00704F8E802ABA6
:1055E80035B106982044B0423FF63BAFC4E900AB62
:1055F8004FF0000B08344FF0080A534611F8010F1A
:10560800002878D0BBF1000F7FF46DAF2528F5D1C5
:105618004FF0010B019B013301934FF0040AECE7B3
:10562800584693E700208346A5E7082B02D06FF081
:10563800150018E708F1070828F00708F8E802231A
:10564800C4E9002308230834D8E768B9042B02D139
:1056580008F10408A4E7082BE9D108F1070828F0A5
:10566800070808F10808EDE7059A013A059258F885
:10567800042B00920DE7039A900720D54FF0010CF8
:10568800A4EB050E4FEA9E00BEF5007FCFD20F2F88
:10569800CDD8F5B107F140020DEB020E019AC0B268
:1056A8000EF8200C0EF8102CBCF1000F3FF417AFC9
:1056B80060F07F000EF8200C09F101090137C5F1EF
:1056C80008024FF6DA7E0434069297E74FF0000C92
:1056D800DAE7BCF1000F01D00136EFE70298023695
:1056E8000028EBD10098CDE9063131F04FFADDE919
:1056F80006310644E2E7631BB3F5806F97D23DB9E4
:10570800A6F10804E018AEE640BF05006C67070084
:10571800029A9B0828602B709DF81030C2B1EB707C
:1057280085F80290B9F1000F05D0002208A8C5F14C
:10573800010C97420ED14FF0000AC5F101030DF19B
:10574800200801930DF1300B574512D1601B8AE6F2
:105758006B70E5E710F8013B190608D504EB0C0E51
:10576800764503F07F03FFF47CAE04F8013B013279
:10577800DFE7B9F1000F03D098F90020002A17DB02
:10578800029BD3B11AF80B2004F8012B0022019BCD
:10579800981820448642FFF464AE98F800000099F7
:1057A80004F8010B20460392FBF720FA039A1444ED
:1057B8000AF1010A08F10108C6E798F8002055F82F
:1057C80022300093029B009845F8223031F0DEF930
:1057D800421CDCE76FF00D0045E600BF2DE9F04FF5
:1057E80095B000AFBB61BB6F0446C3F3C0038A46E4
:1057F80090F802B07A623B6141B9457800780BEBCA
:1058080080002044554517D8A0EB040AE3787B6153
:10581800BBF1000F02D0BB6FD80716D47B6953BB0E
:105828007B6A1BB151462046BA69984755462846B7
:105838005437BD46BDE8F08F461C304631F0A6F916
:10584800013030440AF1010ADCE7237862683B62E0
:105858009B00FB603B6AFA6104EB83097B6A002BBF
:1058680040F0FF80C8460026554609EB0B0AD04594
:1058780051D1D94413E0BB6F9907D1D52378994604
:105888003B629B00FB60636804EB8909FB617B6AF0
:10589800002B7AD15546BBF1000F4FD15E46BB6F46
:1058A80013F0050F0CBF4FF0020B4FF0010B7B6993
:1058B80009EB430ABB6F03F002037B62D145B6D004
:1058C80019F8021B19F8013C54F82380AB4B984592
:1058D80002D3AB4B984538D33B69002B42D0F869CB
:1058E80040F052FA00283DD0E8468AB06A46A54BF7
:1058F8005361FB69C2E906314FF400731384A24B6C
:1059080042F8103F00234FF41251A04801F014FB55
:10591800023DC546D2E718F8013B54F8230031F0A0
:1059280035F9FB6F01303BB1D7F880309E423EBF5E
:10593800FB6F23F816000136054498E7BB6F13F098
:1059480004061CBF7E6AD944A9E73B6923B1F869FC
:1059580040F01AFA0028C7D1BB6FDA0705D4A5EBC7
:105968000B05ABE77B6A002BA8D0404631F00EF957
:10597800FB6F43B1D7F880309E423FBFFA6F431C9C
:1059880022F816300136054498E7BBF1000F6ED0B7
:10599800BB6F13F004066DD0D846002607F140000F
:1059A8005A464946FBF722F97B69D9445B007B607C
:1059B8007B6909EB4303BB60BB6F03F002033B60E9
:1059C800BB684B4558D1B96F6378B86F890748BF32
:1059D800002106EB030258BF4FEA5801C507D2B2AF
:1059E80000F19A8010F0040F14BF40460020FB61BC
:1059F8006270A070E1702046BA69F9687B6A9847BE
:105A0800051EFFF614AF3B6A41462370FB69BA696D
:105A180063707B6984F802B0E37007F140007B6A29
:105A28009847B0F10008C0F2A480FB68AAEB0B010C
:105A3800C91A7B684846C91ABA697B6A9847002818
:105A4800C0F299804FF0000BA84408EB000507F15D
:105A5800300AB34562D30021BA6908467B6A984781
:105A6800E5E65E464FF0000807F1300098E75E462D
:105A7800D84699E7B04697E719F8021B3F4B19F843
:105A8800015C54F82500984202D33D4B98421DD33F
:105A98003B6923B1F86940F077F9002890D13B6859
:105AA800FBB908F1280307F1280208F1010003EB0C
:105AB800020C07F1500308F1020853FA80F00CF8C1
:105AC800101C5FFA88F800F8105C79E73B692BB185
