:1000000090CF00209D6A000083FF0100716A00000C
:10001000716A0000716A0000716A0000716A000074
:1000200000000000000000000000000085630000E8
:10003000716A0000000000002D630000716A00007A
:10004000056400000564000005640000056400000C
:1000500005640000056400000564000005640000FC
:1000600005640000056400000564000005640000EC
:1000700005640000056400000564000005640000DC
:1000800005640000056400000564000005640000CC
:1000900005640000056400000564000005640000BC
:1000A00005640000056400000564000005640000AC
:1000B000056400000564000005640000056400009C
:1000C000056400000564000005640000056400008C
:1000D000056400000564000005640000056400007C
:1000E000056400000564000005640000056400006C
:1000F000056400000564000005640000056400005C
:10010000056400000564000005640000056400004B
:10011000056400000564000005640000056400003B
:10012000056400000564000005640000056400002B
:10013000056400000564000005640000056400001B
:10014000056400000564000005640000056400000B
:040150000564000042
:04015400FFFFFFFFAB
:1001580081F0004102E000BF83F0004330B54FEA70
:1001680041044FEA430594EA050F08BF90EA020FDD
:100178001FBF54EA000C55EA020C7FEA645C7FEA70
:10018800655C00F0E2804FEA5454D4EB5555B8BF93
:100198006D420CDD2C4480EA020281EA030382EA04
:1001A800000083EA010180EA020281EA0303362D96
:1001B80088BF30BD11F0004F4FEA01314FF4801C69
:1001C8004CEA113102D0404261EB410113F0004F7B
:1001D8004FEA03334CEA133302D0524263EB430332
:1001E80094EA050F00F0A780A4F10104D5F1200ED0
:1001F8000DDB02FA0EFC22FA05F2801841F100012B
:1002080003FA0EF2801843FA05F359410EE0A5F1FE
:1002180020050EF1200E012A03FA0EFC28BF4CF02F
:10022800020C43FA05F3C01851EBE37101F00045E5
:1002380007D54FF0000EDCF1000C7EEB00006EEBF2
:100248000101B1F5801F1BD3B1F5001F0CD349087C
:100258005FEA30004FEA3C0C04F101044FEA4452D3
:1002680012F5800F80F09A80BCF1004F08BF5FEA5A
:10027800500C50F1000041EB045141EA050130BD3A
:100288005FEA4C0C404141EB0101013C28BFB1F54C
:10029800801FE9D291F0000F04BF01460020B1FA97
:1002A80081F308BF2033A3F10B03B3F120020CDA6A
:1002B8000C3208DD02F1140CC2F10C0201FA0CF048
:1002C80021FA02F10CE002F11402D8BFC2F1200CAD
:1002D80001FA02F120FA0CFCDCBF41EA0C01904063
:1002E800E41AA2BF01EB0451294330BD6FEA0404AC
:1002F8001F3C1CDA0C340EDC04F11404C4F1200297
:1003080020FA04F001FA02F340EA030021FA04F3A8
:1003180045EA030130BDC4F10C04C4F1200220FAFF
:1003280002F001FA04F340EA0300294630BD21FA3D
:1003380004F0294630BD94F0000F83F4801306BF03
:1003480081F480110134013D4EE77FEA645C18BFF7
:100358007FEA655C29D094EA050F08BF90EA020F8E
:1003680005D054EA000C04BF1946104630BD91EA86
:10037800030F1EBF0021002030BD5FEA545C05D189
:100388004000494128BF41F0004130BD14F58004C8
:100398003CBF01F5801130BD01F0004545F0FE413C
:1003A80041F470014FF0000030BD7FEA645C1ABF71
:1003B800194610467FEA655C1CBF0B46024650EAA8
:1003C800013406BF52EA033591EA030F41F40021D4
:1003D80030BD00BF90F0000F04BF0021704730B55A
:1003E8004FF4806404F132044FF000054FF000012F
:1003F80050E700BF90F0000F04BF0021704730B5F0
:100408004FF4806404F1320410F0004548BF4042C4
:100418004FF000013EE700BF42004FEAE2014FEA19
:1004280031014FEA02701FBF12F07F4393F07F4FF4
:1004380081F06051704732F07F4208BF704793F0F7
:100448007F4F04BF41F40021704730B54FF460740A
:1004580001F0004521F000411CE700BF50EA01020D
:1004680008BF704730B54FF000050AE050EA0102B6
:1004780008BF704730B511F0004502D5404261EB26
:1004880041014FF4806404F132045FEA915C3FF467
:10049800D8AE4FF003025FEADC0C18BF03325FEA04
:1004A800DC0C18BF033202EBDC02C2F1200300FAB5
:1004B80003FC20FA02F001FA03FE40EA0E0021FADA
:1004C80002F11444BDE600BF70B54FF0FF0C4CF4C8
:1004D800E06C1CEA11541DBF1CEA135594EA0C0F7A
:1004E80095EA0C0F00F0DEF82C4481EA030621EAB5
:1004F8004C5123EA4C5350EA013518BF52EA0335F0
:1005080041F4801143F4801338D0A0FB02CE4FF0A1
:100518000005E1FB02E506F00042E0FB03E54FF0D1
:100528000006E1FB03569CF0000F18BF4EF0010EC9
:10053800A4F1FF04B6F5007F64F5407404D25FEAC5
:100548004E0E6D4146EB060642EAC62141EA555178
:100558004FEAC52040EA5E504FEACE2EB4F1FD0CBA
:1005680088BFBCF5E06F1ED8BEF1004F08BF5FEA38
:10057800500E50F1000041EB045170BD06F00046EA
:1005880046EA010140EA020081EA0301B4EB5C0497
:10059800C2BFD4EB0C0541EA045170BD41F480118F
:1005A8004FF0000E013C00F3AB8014F1360FDEBFB4
:1005B800002001F0004170BDC4F10004203C35DA90
:1005C8000C341BDC04F11404C4F1200500FA05F313
:1005D80020FA04F001FA05F240EA020001F00042B4
:1005E80021F0004110EBD37021FA04F642EB06012A
:1005F8005EEA430E08BF20EAD37070BDC4F10C0454
:10060800C4F1200500FA04F320FA05F001FA04F217
:1006180040EA020001F0004110EBD37041F1000103
:100628005EEA430E08BF20EAD37070BDC4F120050E
:1006380000FA05F24EEA020E20FA04F301FA05F276
:1006480043EA020321FA04F001F0004121FA04F21E
:1006580020EA020000EBD3705EEA430E08BF20EAEE
:10066800D37070BD94F0000F0FD101F00046400028
:1006780041EB010111F4801F08BF013CF7D041EAAA
:10068800060195F0000F18BF704703F000465200AE
:1006980043EB030313F4801F08BF013DF7D043EA7F
:1006A8000603704794EA0C0F0CEA135518BF95EA35
:1006B8000C0F0CD050EA410618BF52EA4306D1D1BC
:1006C80081EA030101F000414FF0000070BD50EADB
:1006D800410606BF1046194652EA430619D094EA65
:1006E8000C0F02D150EA013613D195EA0C0F05D14F
:1006F80052EA03361CBF104619460AD181EA0301A3
:1007080001F0004141F0FE4141F470014FF000005A
:1007180070BD41F0FE4141F4780170BD70B54FF0F5
:10072800FF0C4CF4E06C1CEA11541DBF1CEA135575
:1007380094EA0C0F95EA0C0F00F0A7F8A4EB050457
:1007480081EA030E52EA03354FEA013100F088804E
:100758004FEA03334FF0805545EA131343EA126317
:100768004FEA022245EA111545EA10654FEA0026CC
:100778000EF000419D4208BF964244F1FD0404F585
:10078800407402D25B084FEA3202B61A65EB0305E1
:100798005B084FEA32024FF480104FF4002CB6EB9E
:1007A800020E75EB030E22BFB61A754640EA0C001E
:1007B8005B084FEA3202B6EB020E75EB030E22BF5E
:1007C800B61A754640EA5C005B084FEA3202B6EB9F
:1007D800020E75EB030E22BFB61A754640EA9C005E
:1007E8005B084FEA3202B6EB020E75EB030E22BF2E
:1007F800B61A754640EADC0055EA060E18D04FEAEC
:10080800051545EA16754FEA06164FEAC30343EA8B
:1008180052734FEAC2025FEA1C1CC0D111F4801F58
:100828000BD141EA00014FF000004FF0004CB6E751
:1008380011F4801F04BF01430020B4F1FD0C88BFF0
:10084800BCF5E06F3FF6AFAEB5EB030C04BFB6EBFB
:10085800020C5FEA500C50F1000041EB045170BDEE
:100868000EF0004E4EEA113114EB5C04C2BFD4EB1B
:100878000C0541EA045170BD41F480114FF0000E9F
:10088800013C90E645EA060E8DE60CEA135594EA1B
:100898000C0F08BF95EA0C0F3FF43BAF94EA0C0F1E
:1008A8000AD150EA01347FF434AF95EA0C0F7FF493
:1008B80025AF104619462CE795EA0C0F06D152EAE7
:1008C80003353FF4FDAE1046194622E750EA4106CB
:1008D80018BF52EA43067FF4C5AE50EA41047FF4DC
:1008E8000DAF52EA43057FF4EBAE12E74A0011D28E
:1008F80012F5001211D20DD56FF47873B3EB625272
:100908000ED44FEAC12343F0004343EA505323FA7D
:1009180002F070474FF00000704750EA013002D1F2
:100928004FF0FF3070474FF0000070477BB972B945
:100938000029BEBF00204FF0004106E008BF002894
:100948001CBF6FF000414FF0FF3000F075B8ADF1FB
:10095800080C6DE904CE002909DB002B1ADB00F036
:1009680087FADDF804E0DDE9022304B0704740426D
:1009780061EB4101002B1BDB00F07AFADDF804E0A3
:10098800DDE9022304B0404261EB4101524263EBCE
:1009980043037047524263EB430300F069FADDF802
:1009A80004E0DDE9022304B0404261EB41017047F5
:1009B800524263EB430300F05BFADDF804E0DDE943
:1009C800022304B0524263EB4303704753B94AB958
:1009D800002908BF00281CBF4FF0FF314FF0FF303F
:1009E80000F02AB8ADF1080C6DE904CE00F040FA29
:1009F800DDF804E0DDE9022304B07047D0B5002239
:100A08000B4B06460F46FFF75FFDFFF76FFF0446E7
:100A1800FFF7E0FC0022074BFFF756FD02460B46A6
:100A280030463946FFF798FBFFF760FF2146D0BDF7
:100A38000000F03D0000F041704700BF4FF0FF3C60
:100A480006E000BF4FF0010C02E000BF4FF0010CC0
:100A58004DF804CD4FEA410C7FEA6C5C4FEA430C39
:100A680018BF7FEA6C5C1BD001B050EA410C0CBF88
:100A780052EA430C91EA030F02BF90EA020F0020EA
:100A8800704710F1000F91EA030F58BF994208BF51
:100A980090422CBFD8176FEAE37040F0010070470E
:100AA8004FEA410C7FEA6C5C02D150EA013C07D165
:100AB8004FEA430C7FEA6C5CD6D152EA033CD3D0B0
:100AC8005DF8040B704700BF8446104662468C46AA
:100AD8001946634600E000BF01B5FFF7B7FF0028DD
:100AE80048BF10F1000F01BD4DF808EDFFF7F4FF06
:100AF8000CBF012000205DF808FB00BF4DF808ED91
:100B0800FFF7EAFF34BF012000205DF808FB00BFB3
:100B18004DF808EDFFF7E0FF94BF012000205DF8D5
:100B280008FB00BF4DF808EDFFF7CEFF94BF01208A
:100B380000205DF808FB00BF4DF808EDFFF7C4FF83
:100B480034BF012000205DF808FB00BF844641EA5D
:100B5800000313F0030349D1403A23D30B68036021
:100B68004B6843608B688360CB68C3600B69036123
:100B78004B6943618B698361CB69C3610B6A03620B
:100B88004B6A43628B6A8362CB6AC3620B6B0363F3
:100B98004B6B43638B6B8363CB6BC36340304031D8
:100BA800403ADBD230320BD30B6803604B684360AA
:100BB8008B688360CB68C36010301031103AF3D271
:100BC8000C3205D351F8043B40F8043B043AF9D2FF
:100BD800043208D0D2071CBF11F8013B00F8013BD2
:100BE80001D30B8803806046704700BF082A13D3DF
:100BF8008B07B1D010F00303AED0C3F10403D21AAF
:100C0800DB071CBF11F8013B00F8013BA4D331F806
:100C1800023B20F8023B9FE7043AD9D3013A11F886
:100C2800013B00F8013BF9D20B7803704B78437015
:100C38008B7883706046704780EA010C1CF0030FC4
:100C480037D110F0030C20F0030021F0030150F815
:100C5800042B08BF51F8043B0ED08CF0030C6FF046
:100C68007F434FEACC0C23FA0CFC51F8043B42EAD0
:100C78000C0243EA0C0300BFA2F1013C9A4201BFF7
:100C88002CEA020C1CF0803F50F8042B51F8043B6E
:100C9800F2D04FEA02604FEA1222012828BFB0EBD7
:100CA800036F08BF1B0AF4D003F0FF03000EC01A3D
:100CB800704710F0030F0AD010F8012B11F8013B10
:100CC800012A28BF9A42F4D0A2EB030070474DF8DE
:100CD800045D50F8042B01F0030521F0030151F8DD
:100CE800043B022D26D04DD822F07F45B5EB132FBB
:100CF800A2F1013C2CEA020C0DD11CF0803C08BF8B
:100D080051F8043B0AD185EA0205B5EB036F0CD113
:100D180050F8042BE8E74FEA13235BE03CF07F4CE4
:100D280054D10B784FEA126554E04FEA126503F08C
:100D3800FF034FE04FEA0245A2F1013C4FEA154597
:100D48002CEA020CB5EB134F18D11CF0803C08BFFD
:100D580051F8043B07D185EA0205B5EB034F09D1E9
:100D680050F8042BE6E75FEA0C4C2FD10B884FEACA
:100D780012452FE04FEA03434FEA12454FEA134367
:100D880028E000BF02F0FF05B5EB136FA2F1013CAC
:100D98002CEA020C0DD11CF0803C08BF51F8043B32
:100DA8000AD185EA0205B5EB032F0AD150F8042BC6
:100DB800E8E74FEA13630DE012F0FF0F06D051F891
:100DC800043B4FEA122523F07F4303E04FF0000075
:100DD80020BC704705F0FF0203F0FF00012828BF80
:100DE800904204BF2D0A1B0AF4D0A2EB000020BCDD
:100DF800704700BF4FEA410C7FEA6C5C02D150EAB1
:100E0800013C0AD14FEA430C7FEA6C5C02D152EAFA
:100E1800033C02D14FF0000070474FF001007047CB
:100E28004FEA410212F5001215D211D56FF478730A
:100E3800B3EB625212D94FEAC12343F0004343EAAD
:100E4800505311F0004F23FA02F018BF4042704788
:100E58004FF00000704750EA013005D111F0004012
:100E680008BF6FF0004070474FF00000704700BFA8
:100E78002DE9F04786468C460846089E1546744676
:100E88001946002B40F0C1808542B2FA82F245D95A
:100E98004AB1C2F1200300FA02FC954094402EFAB0
:100EA80003F343EA0C0C4FEA154EA8B2230CBCFB23
:100EB800FEF80EFB18CC08FB00F943EA0C439945F1
:100EC80028D9EB1808F1FF3704D2994502D9A8F1BF
:100ED80002072B44A3EB0903A4B2B3FBFEFC0EFBF1
:100EE8001C330CFB00F044EA0344A04214D92C192B
:100EF8000CF1FF3304D2A04202D9ACF102032C4416
:100F0800241A43EA07401EB1D440002334607360BA
:100F1800BDE8F0874746DDE76346F1E792BB431B30
:100F280001214FEA154EAFB2200CB3FBFEFC0EFBBD
:100F38001C330CFB07F840EA0343984561D9EB18CA
:100F48000CF1FF3004D2984502D9ACF102002B44D1
:100F5800A3EB0803A4B2B3FBFEFC0EFB1C330CFB93
:100F680007F744EA0344A7424DD92C190CF1FF3383
:100F780004D2A74202D9ACF102032C44E41B43EA91
:100F88000040C0E7C2F120039540944020FA03F1E5
:100F98002EFA03F34FEA154E9040AFB20343B1FB6C
:100FA800FEFC0EFB1C10190C0CFB07F841EA004173
:100FB800884522D969180CF1FF3004D2884502D936
:100FC800ACF102002944A1EB08019BB2B1FBFEFC85
:100FD8000EFB1C110CFB07F743EA01439F420ED995
:100FE800EB180CF1FF3104D29F4202D9ACF1020197
:100FF8002B44DB1B41EA004193E76046E3E7614687
:10100800F7E76046A4E76346B8E7834206D916B90E
:10101800002108467CE7C6E900E0F9E7B3FA83F760
:101028008FB9834201D3724508D8BEEB020460EB46
:10103800030301209C461EB9002169E73846FAE7F8
:10104800C6E9004CF8E7C7F1200CBB400EFA07F5DB
:1010580022FA0CF42EFA0CF1BA401C4320FA0CF3D5
:10106800B8404FEA144901431FFA84FEB3FBF9F86C
:1010780009FB18300B0C08FB0EFA43EA00439A45AB
:1010880040D9E31808F1FF3004D29A4502D9A8F1F3
:1010980002002344A3EB0A0389B2B3FBF9F809FB66
:1010A800183308FB0EFE41EA03418E452CD961181E
:1010B80008F1FF3304D28E4502D9A8F10203214476
:1010C80043EA0040A1EB0E01A0FB02984145CE4641
:1010D800434602D306D14D4504D20138B9EB020E7E
:1010E80068EB0403002EA7D0B5EB0E0261EB0301F9
:1010F80001FA0CFC22FA07F3F9404CEA0303C6E9AB
:10110800003199E74046C5E74346D9E700000000AB
:10111800C1F30A5C02460B462DE9F041ACF2FF35FB
:101128000C460646132D34DC002D20DBDFF8D0807A
:101138000F4648FA05F801EA080C5CEA000C2DD0C5
:101148002DA3D3E90023FFF709F800220023FFF7B6
:10115800F3FC40B1002C03DD4FF480132B411F44F6
:1011680027EA0804002621463046BDE8F08122A37C
:10117800D3E90023FEF7F2FF00220023FFF7DCFC8F
:101188000028F0D0002C33DB3443EBD000261D4C74
:10119800E9E7332D06DDB5F5806F26D010461946F0
:1011A800BDE8F081ACF2134C4FF0FF3727FA0CF78B
:1011B8003842F3D010A3D3E90023FEF7CFFF002273
:1011C8000023FFF7B9FC0028CDD0002C334609DDF9
:1011D800142D06D0C5F134050122AA4013449E42BD
:1011E80000D9013423EA0706BDE7FEF7B7FFD7E7C2
:1011F80000264FF00044B6E79C7500883CE4377E33
:10120800FFFF0F000000F03FC1F30A5C02460B46E7
:101218002DE9F041ACF2FF350C460646132D32DCC1
:10122800002D20DBDFF8E0800F4648FA05F801EAD8
:10123800080C5CEA000C2BD031A3D3E90023FEF79D
:101248008DFF00220023FFF777FC40B1002C03DA62
:101258004FF480132B411F4427EA08040026214637
:101268003046BDE8F08126A3D3E90023FEF776FFD8
:1012780000220023FFF760FC0028F0D0002C27DBB9
:1012880000263446EBE7332D06DDB5F5806F1CD01C
:1012980010461946BDE8F081ACF2134C4FF0FF3709
:1012A80027FA0CF70742F3D015A3D3E90023FEF77A
:1012B80055FF00220023FFF73FFC0028CFD0002C69
:1012C80033460CDB23EA0706C9E7FEF747FFE1E7E9
:1012D80024F0004426430DD14FF00044BFE7142DFD
:1012E80006D0C5F134050122AA401344B342E9D21D
:1012F8000134E7E70026054CB1E700BFAFF30080F3
:101308009C7500883CE4377EFFFF0F000000F0BFAB
:10131800F8B5C1F30A5604460D4617460B462EBBD0
:1013280021F00043034320D02D4B0022FFF7CCF8D7
:101338002C4B04460D469F4241DBC1F30A560B462F
:10134800363EBA1940F2FE718A4217DC002A30DCB8
:1013580012F1350F1EDB244E363220461E40234B39
:1013680046EA02510022FFF7AFF8F8BD40F2FF72DB
:101378009642E6D10246FEF7F1FEF8BD14A3D3E982
:101388000023ED0F1A481C4665F3DF742146FFF76A
:101398009BF8F8BD05F00044164844F0D27141F4BA
:1013A800B7310DA3D3E9002341F01F01FFF78CF8F3
:1013B800F8BD0D4E20461E4046EA0251F8BD06A370
:1013C800D3E90023FFF780F8F8BD00BFAFF3008032
:1013D8009C7500883CE4377E59F3F8C21F6EA5015E
:1013E80000005043B03CFFFFFFFF0F800000903C1F
:1013F8009C75008859F3F8C22DE9F04F016C9BB039
:1014080016461F46279D0490CDE9026749B1426CF4
:101418000123044693404A608B6018F01DFB0023AB
:101428002364B7F10009C0F2B68000232B607E4B1D
:1014380033EA090300F0BA800022DDE902341846D5
:1014480021460023CDE90801FFF74EFB804668B12D
:101458000123269A1360289B13B1744B289A1360B2
:10146800DFF8CC8140461BB0BDE8F08F18AB04987C
:10147800019319AB0093DDE9082318F01BFE83469E
:101488005FEA195540F0A980DDE91885454405F261
:101498003243202B40F34D82C3F1400309FA03F98C
:1014A80005F2124326FA03F349EA0300FEF792FF16
:1014B800013D0123A1F1F871109300225D4BFEF765
:1014C8004BFE53A3D3E90023FEF7FEFF52A3D3E953
:1014D8000023FEF743FE06460F462846FEF78AFF1E
:1014E8004FA3D3E90023FEF7EFFF02460B46304631
:1014F8003946FEF733FE06460F46FFF791FC0022F9
:101508008246002330463946FFF7F8FA002840F0B3
:101518000382A8EB0508BAF1160F08F1FF3306930A
:1015280000F2A781444E06EBCA06DDE90801D6E9B8
:101538000023FFF7E3FA002800F0848000230AF173
:10154800FF3A0F9308F1FF33002BC0F29981002373
:101558000A93BAF1000F7BDA0A9BCDF82CA0A3EB13
:101568000A030A93CAF100034FF0000A0E93249B62
:10157800092B77D8052B40F3E181043B00272493FE
:10158800249B023B032B00F25986DFE813F0540436
:10159800510447042C04012329F000492B60224BF5
:1015A800CDF80C9033EA09037FF446AFC9F3130969
:1015B80042F20F73269A59EA060913601DD0289B38
:1015C800DFF87880002B3FF44DAF08F10303289A29
:1015D800404613601BB0BDE8F08FDDE90812CDF876
:1015E8004080A5F2FF35C2F313030846DDF860809A
:1015F80043F07F5141F440115FE7289BDFF84080BA
:10160800002B3FF42FAF08F10803E0E7AFF30080A9
:1016180061436F63A787D23FB3C8608B288AC63FF0
:10162800FB799F501344D33F0000F07F051303005C
:10163800041303000000F83FF04D020034130300C8
:1016480028130300B8F1000F40F3B1840F900A90FB
:10165800069BCDF82CA05344069300230E93249B9D
:10166800092B87D900230127CDE924334FF0FF3315
:101678000C970793049B00215964079B11930498C6
:1016880018F0C4F90590002800F0E185079B0E2B9F
:101698008CBF002707F00107DDE904321A64002F28
:1016A80000F01B810B9A002A40F34A81BC4E02F0DD
:1016B8000F03D4054FEA221806EBC303D3E90067EA
:1016C80040F17083B74B08F00F080325D3E90823CE
:1016D800DDE90801FFF722F8CDE91201B8F1000FA2
:1016E80012D0DFF8C09218F0010F08D03046394602
:1016F8000135D9E90023FEF7E7FE06460F465FEA03
:10170800680809F10809EED132463B46DDE91201C5
:10171800FFF704F8804689460F9B43B10022A24B8D
:1017280040464946FFF7EAF9002840F04784284632
:10173800FEF760FE42464B46FEF7C6FE9B4B002274
:10174800FEF70CFD079B0646A1F15077002B00F031
:10175800AB80079B0B9C1293059B404612995D1C1E
:10176800CDE914678E4E06EBC10353E90212CDE9A9
:1017780016124946FFF754FB00F13007FEF73AFE10
:1017880002460B4640464946FFB2FEF7E5FC89464D
:101798000C998046DDE91623002900F00F8100200E
:1017A8008349FEF7BBFFDDE91423FEF7D5FC059E50
:1017B80042464B46377006460F46FFF7BDF90028EC
:1017C80040F02F850023CDF858A0CDF850B09A46A8
:1017D800DDF848B012942BE00AF1010ADA4580F2EC
:1017E800BD84304639460022724BFEF76DFE00225A
:1017F800704B06460F4640464946FEF765FE894649
:101808008046FFF70DFB0446FEF7F4FD02460B4643
:10181800303440464946FEF79FFC32463B4605F8C1
:10182800014B80468946FFF769F9002840F09C84FF
:1018380042464B4600205C49FEF78EFC32463B464A
:10184800FFF75CF90028C7D0DDF850B02F46129C8E
:10185800059902E08F4200F05F843A4617F8013D8F
:10186800392BF7D00133DBB23B70DDF814800592D9
:101878006BE101230F9308F1FF33002BBFF667AE2E
:10188800C8F101030A930023069362E62846FEF78F
:10189800B1FD42464B46FEF717FE0022434BFEF7CA
:1018A8005DFC0646A1F15077404649460022424B6E
:1018B800FEF752FC32463B4680468946FFF73CF924
:1018C800002840F0AD8340464946324607F10043C0
:1018D800FFF714F9002840F0D5810B9A199B0E2ABE
:1018E80002DC002B80F2AD810C9A002A00F0B58052
:1018F800249A012A40F38583079A0E9B551EAB4212
:10190800C0F2C782002AA3EB050580F25B840A9B1C
:10191800079AA3EB0208C9E25046FEF76BFD324670
:101928003B46FFF7E1F800287FF4F3AD0AF1FF3AF0
:10193800EFE5C3F1200306FA03F0B7E501271FE638
:1019480000F0A3820B9B164E5D4205F00F0306EBD9
:10195800C303DDE90801D3E90023FEF7B5FD2E1125
:10196800CDE9120100F052840E4C00230225804676
:101978008946F00709D5404649460135D4E9002390
:10198800FEF7A2FD3B4680468946761004F108041E
:10199800EFD1002B7FF4C0AEDDE91289BCE600BFB1
:1019A800F04D0200C84D02000000F03F00001C404E
:1019B8000000E03F0000244000001440DDE914016D
:1019C800FEF782FD059B1F70129B012BCDE90C01D0
:1019D80000F00984129F059BCDF840A01F44002207
:1019E800AA4B40464946FEF76FFD89468046FFF7F9
:1019F80017FA8246FEF7FEFC02460B460AF1300A49
:101A080040464946FEF7A8FB05F801ABAF428046C1
:101A18008946E4D1DDF840A000229D4BDDE90C01A8
:101A2800FEF79CFB42464B46FFF768F8002840F05B
:101A38007B8300209649DDE90C23FEF78DFB4246A7
:101A48004B46FFF779F8002840F01982199B002BC4
:101A580003DB0B9B0E2B40F3F58000230E9DDDF876
:101A680028801E460C93B8F1000F0DDD0699002959
:101A78000B4609DD41450A9AA8BF4346D21AA8EB8E
:101A88000308CB1A0A9206930E9B53B10C9B13B111
:101A9800002D40F01E8259460E9A049818F06CF9F1
:101AA80083460121049818F087F80746BAF1000F19
:101AB80040F06381249B012B40F37A81012306992E
:101AC8000B4413F01F0308D0C3F12002042A00F3CB
:101AD800B5810AD0C3F13C0300E01C230A9A98445C
:101AE8001A440A92069A1A4406920A9B002B05DDAC
:101AF80059461A46049818F099F98346069B002B14
:101B080005DD39461A46049818F090F90746249BD3
:101B1800022B0F9BD4BF00250125002B40F0BE806F
:101B2800079B002B24DC1DB3079B002B00F08F8143
:101B3800259BDDF81480DC433946049817F08CFFA8
:101B48001EB13146049817F087FF5946049817F0DC
:101B580083FF00220599631C0A70269A1360289B4C
:101B6800002B3FF47FAC404619601BB0BDE8F08FF6
:101B78000C9B002B00F0AF80B8F1000F00F3C08180
:101B8800BAF1000F40F0D382B146059D079C6B1E49
:101B98001C44029B089403F00103049C0A933946F1
:101BA800584617F07BFB31468246584618F0B2F982
:101BB8004A4639468046204618F0CCF9C2680146A4
:101BC8000AF13003002A40F0A281CDE90603584605
:101BD80018F0A0F906990690204617F03DFF249BBF
:101BE800069A52EA0301079B40F0C2810A9A002A2A
:101BF80000F0F282B8F1000FC0F2AD81089AA84651
:101C0800AA4208F8013B00F0D282594600230A2272
:101C1800204617F02BFF4E45834631464FF0000310
:101C28004FF00A02204600F09D8117F01FFF494639
:101C3800064600230A22204617F018FF454681462B
:101C4800ADE7144E0B9B06EBC306D6E90034CDE98D
:101C58000234259B002B80F2E881079B002B00F3C0
:101C6800E481079B73B900220B4BDDE90201FEF703
:101C78002BFC02460B46DDE90801FEF749FF002868
:101C880000F0CE8100273E4652E700BF0000244006
:101C98000000E03FF04D020000001440394658466D
:101CA80018F038F90028BFF63BAF0B9B59460A22BB
:101CB8000498013B0B93002317F0D8FE0C9B834636
:101CC800002B40F09282119B002B119B079302DCA2
:101CD800002D7FF429AFDDF814800125079CDDF87D
:101CE800109007E0594600230A22484617F0BEFE26
:101CF800013583463946584617F0D0FAA54200F117
:101D0800300308F8013BEDDB079A0025002ACCBF19
:101D180090464FF00108059A9044594601220498CC
:101D2800029318F083F83946834618F0F3F8002830
:101D380040F3E481059A02E0904500F0D48118F858
:101D4800013CC24608F1FF38392BF5D001330B9C12
:101D580088F800303946049817F07EFE002E00F00F
:101D6800C8812DB1B54203D02946049817F074FEF6
:101D7800DDF81480CDF814A0E3E601465246049835
:101D880017F0FAFF249B0746012B40F395804FF08C
:101D9800000A3B6907EB8303186917F0B9FEC0F125
:101DA80020038CE6DDE908340225CDE9123495E4F8
:101DB800029B002B7FF482AEDDE90212C2F313030B
:101DC800002B7FF47BAEAD4B134033B10A9B01333C
:101DD8000A93069B013306930123BAF1000F40F0E2
:101DE800F9819A466AE601230C93259B0B9A1344C2
:101DF80011930133012B1D460793B8BF0125172DF9
:101E080040F31382012204235B001146013203F1DF
:101E18001400A842F8D9049B596430E401230C93B8
:101E2800259B002B40F3BE801D4611930793E6E7E0
:101E380000230C93D9E700230C93F1E7C3F11C03AB
:101E48000A9A19441A4498440A9206914DE639466A
:101E58000522049817F00AFE07465846394618F036
:101E680059F800287FF764AEDDF81480059B0B9CB9
:101E7800013301340593312388F800305CE63A4693
:101E880017F8013D302BFAD0EFE40225DDE9088987
:101E980042E40E9B0E95EB1A00259A44DDE90632C2
:101EA800134406930A9B984613440A930121049805
:101EB80017F082FE0646D6E5029B002B7FF467AF3B
:101EC800DDE90201C1F313030A46002B3FF47BAF9F
:101ED8005DE7049C31462A46204617F04DFF06462A
:101EE8005A462046314617F095FE59468346204605
:101EF80017F0B2FD0E9B5B1B0E933FF4D2ADCAE503
:101F080031464246049817F091FF064638E6049891
:101F1800069317F0A1FDB8F1000F069B08DB029AA3
:101F2800249902F0010248EA010852EA08022ED177
:101F3800594601220498029317F078FF39468346E0
:101F480017F0E8FF0028029B40F36581392B00F069
:101F580031810AF13103AA460B9C35464E460AF8F0
:101F6800013BF7E617F082FD45460646814616E630
:101F7800B8F1000FC0F25E81249948EA01080A9975
:101F880051EA080800F05681002A7FF737AE392B4E
:101F980000F01081AA46013335460B9C4E460AF8DC
:101FA800013BD7E6012325930793FFF763BBC8F1ED
:101FB800010306900F900A93FFF74ABB079B002B7B
:101FC8003FF464AC119B002B7FF787AC0B9A40461B
:101FD80049461293541E2A4B0022FEF775FA804692
:101FE8008946681CFEF706FA42464B46FEF76CFA2D
:101FF8000022244BFEF7B2F80646A1F15077FFF70E
:10200800ABBB109A002A00F08B8003F23343069A88
:102018000E9D1A4406920A9A90461A440A9245E777
:102028000027DDF814803E4620E7DDE90889DDE970
:10203800022340464946FEF771FB059FFEF7F0FE76
:102048000546FEF7D7F9DDE90223FEF73DFA0B4610
:10205800024649464046FEF77FF805F1300307F887
:10206800013B079B012B00F08980CDF818B00126B1
:10207800DDF81C90DDE902AB22E000BF0000F07F34
:102088000000244000001C4052465B46204629467A
:10209800FEF744FB0136FEF7C3FE8046FEF7AAF9B9
:1020A80052465B46FEF710FA0B4602462946204682
:1020B800FEF752F808F13003B14507F8013B5AD052
:1020C8000022704BFEF700FA0022002304460D465A
:1020D800FEF70AFD0028D7D0DDF818B0DDF8148027
:1020E8000B9C059731E50B9C3123059A013413703D
:1020F80030E6DDF81480CDF814A026E503D1029B64
:10210800DB073FF517AE18F8013CC24608F1FF3867
:10211800302BF8D00B9C1DE601343123FFF7A4BB0C
:10212800189BC3F1360372E70599FFF796BB7168F0
:10213800049817F06BFC0546002800F08F8033697F
:1021480006F10C010C3002339A00FEF7FFFC294619
:102158000122049817F06AFE814616E5DDF858A0BA
:10216800DDF850B0FFF7B9BBDDF81480DDF850B0EA
:10217800129C0595E9E4DDF818B0454602460B4681
:10218800FDF7ECFF80468946DDE90223FEF7D4FC23
:1021980048B940464946DDE90223FEF7A5FC002878
:1021A8009CD0E9079AD50B9C0599FFF756BB354695
:1021B8004E46B2E5A84639233546059A4E4608F8F4
:1021C800013BBCE5069B134406930A9B98461344BF
:1021D8000A936BE69A46DCE5392BEBD0B8F1000F91
:1021E8003FF7B7AEB7E62F4616E4314600230A227A
:1021F800049817F03BFC119B0646002B119B079394
:102208003FF7BAAC002D7FF48FACB5E4DDE9128955
:102218000225FFF781BA7FF49EAEDA077FF59BAE01
:1022280094E6DDF8148005958FE40021049B596439
:10223800FFF725BA002A3FF77BAE8CE6049B002502
:10224800184629465D6417F0E1FB059068B90E4B06
:1022580000224FF4D5710D4818F088FF02460A4B4A
:1022680040F2EA21094818F081FFDDE9043225959A
:102278001A644FF0FF33012211930C920793FFF772
:102288002CBB00BF00002440381303004C1303008C
:1022980008232DE9F04F95B0944C02AF7B61237968
:1022A800D90740F1918001210622084603F0B2FACD
:1022B800B0F1000917DA1DF0C0FE6C4688B003685B
:1022C80002AA8B498B48C2E9051303234FF4C25174
:1022D80042F8103F1CF0D1F9A5464FF0FF304FF0FF
:1022E800FF3114F01FF80023834AC7E906230822A8
:1022F800484607F118011DF094FB002817DA1DF075
:102308009CFE6C4688B0036802AA7C497948C2E9F9
:10231800051303234FF4C25142F8103F1CF0ADF9E6
:10232800A5464FF0FF304FF0FF3113F0FBFF0521BA
:1023380048461DF0D0FB002817DA1DF07EFE6C46DB
:1023480088B0036802AA6E496A48C2E905130323E4
:102358004FF4C25142F8103F1CF08FF9A5464FF0D8
:10236800FF304FF0FF3113F0DDFF6C4688B002AA52
:10237800644B4FF4C651536141F2920393610323B6
:102388005C4842F8103F1CF078F94FF00008A54669
:10239800484607F1140207F120011DF0C7FB051E8E
:1023A80018DA1DF04AFE6C4688B0036802AA56493E
:1023B8005048C2E9051303234FF4C25142F8103FB5
:1023C8001CF05BF9A546E3E700214FF4A47013F075
:1023D800A9FF64E7388C07F128063246202307F165
:1023E800240106F061F96C468AB002AA474BD6610F
:1023F800C2E9053840F201331384454B4FF41351B9
:102408003C4842F8103F1CF038F9A54600238022CA
:102418002846CDE900333F491DF067FC041E15DC52
:1024280011D01DF00AFE6C4688B0036802AA3A492A
:102438003048C2E9051303234FF4C25142F8103F54
:102448001CF01BF9A54608F10108A1E7DFF8C4A0B4
:1024580000232246CDE90033514628461DF09CFB57
:10246800031E2EDA7B601DF0E8FDC7F80CD088B09B
:1024780002680DF1080B294B4FF4C251CBE9053224
:102488005A4603231B4842F8103FBA601CF0F5F87F
:10249800D7F80CD0284601F08FFB88B02049BA68DD
:1024A800CBE905164FF40071ABF81C101D49114813
:1024B800CBF810104FF4E2511CF0DFF8D7F80CD02D
:1024C8007B68EB4688B09A44E41A02AA1649094880
:1024D800C2E9051303234FF4C65142F8103F1CF01C
:1024E800CCF8DD46002CB3D190E700BF082A0020C5
:1024F8004E160300804D0200010010926C16030076
:1025080088160300A6160300D6160300F416030067
:10251800040000011C5300201717030033170300A1
:102528004F170300030000017617030010B588B0A9
:1025380000220023CDE90623002307220B4CCDE916
:102548000323CDE9013300934FF400622046084B82
:10255800084912F0B5FF0849204621F067FC2046DB
:1025680008B0BDE8104021F066BC00BF3814002058
:102578009922000050550020AA1703002DE9F04FBA
:10258800574C8BB002AF2379DB0740F1A380554B42
:102598003B6055493A1D01201DF0DBFB38880622B7
:1025A800012103F037F9051E18DA1DF046FD6C46C7
:1025B80088B0036802AA4D49C2E90513032342F80B
:1025C800103F00234FF4C251494802F057FCA5467A
:1025D8004FF0FF304FF0FF3113F0A4FE00214FF40D
:1025E800403013F09FFE0822394628461DF046FA6F
:1025F800002818DA1DF021FD6C4688B0036802AA8D
:102608003C49C2E90513032342F8103F00234FF465
:10261800C251374802F032FCA5464FF0FF304FF068
:10262800FF3113F07FFE344BFB610223BB6140F2A4
:10263800D1464FF00009DFF8C4B0DFF8B4800023BA
:102648004FF486512A4807F1180202F017FC0023BC
:1026580040F2D14259462846CDE900991DF09CFA2E
:10266800041E21DA1DF0E9FCEA4688B0036802AAD4
:102678002349C2E90513032342F8103F00234FF40E
:10268800C251404602F0FAFB2846D54601F094FABA
:102698001C4BFB610223BB6100234FF4825140466F
:1026A80007F1180202F0EAFBEA4688B002AA164BC4
:1026B800C2E90534032342F8103F00234FF4C65102
:1026C800404602F0DBFB361BD546C0D12437BD4659
:1026D800BDE8F08F002140F6CD4013F023FE52E70D
:1026E800082A0020010001F8B4170300BC170300F2
:1026F800804D0200DA170300F9170300580C002078
:1027080018180300341803005818030010B588B0CF
:1027180000220023CDE90623002307220B4CCDE934
:102728000323CDE9013300934FF400622046084BA0
:10273800084912F0C5FE0849204621F077FB2046DB
:1027480008B0BDE8104021F076BB00BFB8140020E7
:1027580085250000505D0020721803002DE9F04F18
:10276800734C89B002AF2379DB0740F18E800024D7
:10277800704BC7E9023411220221012003F04AF804
:10278800051E18DA1DF059FC6E4688B0036802AAC7
:102798006949C2E90513032342F8103F4FF4C251B7
:1027A8002346664802F06AFBB5464FF0FF304FF00B
:1027B800FF3113F0B7FD08222846B9181DF031F98A
:1027C800002818DA1DF039FC6C4688B0036802AAA4
:1027D8005B49C2E90513032342F8103F00234FF475
:1027E800C251564802F04AFBA5464FF0FF304FF061
:1027F800FF3113F097FD00246E4688B002AA514BB2
:10280800536141F293039361032342F8103F00237D
:102818004FF4C651494802F031FBB546DFF828911C
:1028280008237B603B1D07F11006019380220023DB
:102838004946284600961DF058FAB0F100082ADDEE
:10284800DFF8F8A07B688022CDE9006349460023C1
:1028580028461DF0A1F9041E3EDA1DF0EEFB6C4679
:1028680088B0036802AA3949C2E90513032342F86C
:10287800103F00234FF4C251304802F0FFFAA5463A
:102888001DF0DBFB04686442CAE700214FF4A47022
:1028980013F048FD67E716D01DF0CFFB6C4688B0F3
:1028A800036802AA2A49C2E90513032342F8103F24
:1028B80000234FF4C251214802F0E0FAA5461DF06A
:1028C800BCFB04686442002C96DA4FF0FF314FF0ED
:1028D800FF3013F027FD8FE74FF47A7294FBF2F381
:1028E80002FB1343A8EB040873B9EB4688B002AAAD
:1028F8001849C2E90514032142F8101F4FF4C651C4
:10290800504602F0BBFADD46EB4688B002AA124BED
:10291800C2E90534032342F8103F00234FF4C6519F
:10292800504602F0ABFADD46B8F1000F8AD177E7DE
:10293800082A0020010010937C180300804D020033
:102948009A180300B61803009C53002007190300C7
:10295800E7180300251903004119030010B588B0D2
:1029680000220023CDE90623002307220B4CCDE9E2
:102978000323CDE9013300934FF400622046084B4E
:10298800084912F09DFD0849204621F04FFA2046DB
:1029980008B0BDE8104021F04EBA00BF381500203D
:1029A8006527000050650020751903002DE9F047E0
:1029B800524C8AB002AF2379DB0740F19980504B23
:1029C8003B6050493A1D01201DF0C3F93888112297
:1029D800022102F01FFF051E18DA1DF02EFB6C46BF
:1029E80088B0036802AA4849C2E90513032342F8DC
:1029F800103F00234FF4C251444802F03FFAA54665
:102A08004FF0FF304FF0FF3113F08CFC08223946AD
:102A180028461DF033F8002818DA1DF00EFB6C4626
:102A280088B0036802AA3A49C2E90513032342F8A9
:102A3800103F00234FF4C251344802F01FFAA54654
:102A48004FF0FF304FF0FF3113F06CFCE8460226E0
:102A5800304BBE61FB6100234FF486512B4807F1D0
:102A6800180202F00BFA00214FF4203013F05AFC40
:102A7800002440F2D142CDE90044234628462649A5
:102A88001DF08AF888B0824602AA4FF00309234B4A
:102A9800C2E9053042F8109F4FF4C65123461B483F
:102AA80002F0ECF9A245C5461EDA1DF0C6FA88B058
:102AB800036802AA1A49C2E9051342F8109F4FF4A5
:102AC800C2512346114802F0D9F92846C54601F0FB
:102AD80073F8144BC7E906634FF4825123460B4839
:102AE80007F1180202F0CAF92037BD46BDE8F087A1
:102AF800002140F6CD4013F015FC5CE7082A0020C1
:102B0800010001F7B41703007F190300804D02008C
:102B18009D190300BC190300441A0300DB190300C4
:102B2800F5190300111A030010B588B0002200231C
:102B3800CDE90623002307220B4CCDE90323CDE979
:102B4800013300934FF400622046084B084912F005
:102B5800B7FC0849204621F069F9204608B0BDE8CD
:102B6800104021F068B900BFB8150020B529000051
:102B7800506D00203A1A0300B0B586B000AF254C5E
:102B8800204621F07FF8034668B9234A7A61022279
:102B98003A614FF48251214807F1100202F06EF9B0
:102BA8001837BD46B0BD2269A1681368204623F0D6
:102BB800400313600B684FF4202206219847002831
:102BC8000EDB174D2B79DA071BD5A3685B6940210B
:102BD80020469847002140F6CD4013F0A3FBF1E7CB
:102BE8006C4688B06A460F4BC2E90530032342F8A9
:102BF800103F00234FF4C251084802F03FF9A546A0
:102C0800CEE723691B685B06A36854BF1B69DB68B2
:102C1800DDE700BF40490200151F0300804D020098
:102C2800082A00202D1F030010B588B000220023B9
:102C3800CDE90623002307220B4CCDE90323CDE978
:102C4800013300934FF400722046084B084912F0F4
:102C580037FC0849204621F0E9F8204608B0BDE8CD
:102C6800104021F0E8B800BF38160020812B000082
:102C780050750020531F030090B5104BA1B0994226
:102C880000AF18D18168283180233A46012005F029
:102C98000BFD6C4688B06A46094B4FF4E651C2E911
:102CA80005374FF400739383064B074842F8103FEB
:102CB8001BF0E6FCA5468437BD4690BD080004E03D
:102CC8005D1F030003000001804D02002DE9F04361
:102CD80099B000AF05F03EF904464422002107F1FF
:102CE8001C0014F075FB44232146874807F11C0299
:102CF8001DF0BAFC022368B1844A4FF48651C7E933
:102D08000432834807F110021BF0BAFC6437BD4651
:102D1800BDE8F0837F4A4FF48651C7E904327C4806
:102D280007F110021BF0ACFC3B7F6C46092B98BFE7
:102D3800794A88B094BF52F82330784B6A4678496C
:102D48007348C2E905134FF400739383754B4FF42E
:102D5800E65142F8103F1BF093FCFB69A546052B92
:102D6800D4DD97F850306C46052B98BF6E4A88B072
:102D780094BF52F82330694B6A466C496448C2E9EB
:102D880005134FF400739383664B4FF4E65142F8F2
:102D9800103F1BF075FCA54697F851306E46082B7E
:102DA80098BF634A88B06C4694BF52F823305B4B97
:102DB8004FF4007925465F4ADFF86881C4E90523A6
:102DC800A4F81C9045F8108F2A464FF4E651504855
:102DD8001BF056FCB546A546574B2A46636107F1DA
:102DE8002403A3614FF4E6514948A4F81C90C4F8A1
:102DF80010801BF045FC1223B5463A46062107F120
:102E0800440005F025FCA5464C4B2A46C4E905308C
:102E1800A4F81C90C4F810804FF4E6513C481BF00D
:102E28002FFCB54697F84A306E46022B98BF444AA5
:102E380088B06C4694BF52F82330384B414A254637
:102E4800C4E905234FF40073A383364B4FF4E651CE
:102E580045F8103F2A462E481BF012FCB546FB6C7D
:102E6800A546394A4FF4C651C4E9052303232A4627
:102E7800236127481BF004FCB54697F852306C468E
:102E8800072B98BF314A88B094BF52F82330234BA0
:102E98006A462F491E48C2E905134FF4007393830D
:102EA800204B4FF4E65142F8103F1BF0E9FBA546D2
:102EB80097F853306E46022B98BF264A88B06C4666
:102EC80094BF52F82330154B234A2546C4E90523FD
:102ED8004FF40073A383134B4FF4E65145F8103FAA
:102EE8002A460B481BF0CCFBB5467B6DA5461B4A12
:102EF8004FF4C651C4E9052303232A460448236135
:102F08001BF0BEFBB54601E706005651791F0300CA
:102F1800804D02008F1F0300F44E0200711F030052
:102F2800A21F030003000001DC4E0200AC1F0300D7
:102F3800B84E0200BF1F0300CE1F0300CD1F0300C1
:102F48001C4F0200DA1F0300E31F0300344F020086
:102F5800EF1F0300284F0200FC1F0300042003009A
:102F6800B0B5364B86B0994200AF05D001339942CF
:102F78002DD01837BD46B0BD314C2379D907F8D4C8
:102F880083681B689BB16D4688B06A462D492E48F8
:102F9800C2E9051303234FF4C25142F8103F1BF056
:102FA8006FFBAD46237943F002032371E1E7274B1A
:102FB8004FF486517B61022323483B6107F11002DD
:102FC8001BF05EFB237943F001032371EAE71C4CF5
:102FD8002379DA07CDD513F0040582681FD011686C
:102FE8001B4B1C4A6D468AB0002908BF13466A4627
:102FF8001948D161C2E905034FF400731384174BD4
:103008004FF4135142F8103F0F481BF039FBAD46FF
:1030180023796FF382032371FFF758FEA9E7104B5A
:103028004FF486517B61022307483B6107F1100288
:103038001BF026FB237965F30003ECE7030056D168
:10304800082A002012200300804D020029200300D6
:10305800032103000D2003003320030004000001B6
:103068005120030000232DE9F043584D87B05848FC
:10307800C5E90033574B00AF4360574B6C460361BB
:1030880005F050FD5548564B4360564B036105F01B
:1030980049FD554B554A1B688AB0B3FBF2F36A46A3
:1030A8005349544851615449C2E906134FF4007317
:1030B8001384524B4FF4135142F8103F1BF0E0FABF
:1030C800A54600214FF4004013F02CF98CB06A4655
:1030D8004B494C4BD1614C495361396040F2024134
:1030E8004A4BB9807968936113624748484B5062EC
:1030F800118540484FF4535142F8103F1BF0C0FA75
:10310800DFF81081A546DFF81091444C04F022FF47
:103118002B79014623F003032B714FF0FF33E36152
:10312800042323713E4B4846A3600823237340F2CF
:10313800FF13E3820123394A23762023C4F8008051
:103148001DF05CFA022320B34FF48251354AC7E9D7
:10315800043207F11002642626481BF091FA002178
:1031680042F2676013F0DEF8FFF7B0FD2B7999079C
:1031780017D4013EF3D1DB0715D42B4B4FF4825102
:103188007B6102231B483B6107F110021BF078FAB0
:10319800BCE7264A4FF48651C7E9043207F110020A
:1031A800D9E7DA07B2D5224B4FF486517B61022367
:1031B80010483B6107F110021BF062FA4FF0FF3133
:1031C8004FF0FF3013F0AEF8A0E700BF082A002048
:1031D800242A0020692F0000070056D1102A002059
:1031E800812C0000080004E0DC09002040420F00A8
:1031F80067200300804D02008E20030004000001B8
:10320800D4200300A7200300000201039024030038
:1032180005000003E220030002005651E8290020BF
:10322800E7200300F02003001F2103000A21030008
:10323800951F030010B588B000220023CDE90623AE
:10324800002304220B4CCDE90323CDE9013300937D
:103258004FF480522046084B084912F031F90849CA
:10326800204620F0E3FD204608B0BDE8104020F0DD
:10327800E2BD00BFB81600206D3000005077002076
:10328800342103002DE9F04F91B0009302F00403BC
:103298000293C2F3C2030133840705460E46DDF8E4
:1032A80068800392059340F0BD81041D30B1072961
:1032B80009D86FF01B0011B0BDE8F08F01F00706C8
:1032C800341DC6F10806009B4FF000094FF0040AB0
:1032D800591E4FF0FF334F460193CB465346CDF866
:1032E80010900DB1009A22600598002800F3EB8039
:1032F8009948009A824203D398488242C0F0E380FA
:10330800039AA4EB050E92074FEA9E0000F106818E
:103318000F2F00F2B480002D00F0088107F1400261
:103328000DEB020C019A0CF8200C0CF8102C0498E8
:1033380001300490EAE07A2860D84B280ED8472854
:103348005CD829282FD8252855D057D820287DD0B3
:103358002338D0F1000B4BEB000B77E0A0F14C0CBD
:10336800BCF12E0F4AD8DFE80CF0714949494949A8
:103378004949494949494C49494949494949495AA1
:10338800494C4C5A5A5A714C6E497149184C184953
:103398004983804C49494C49800000204FF0000B7C
:1033A8004FF0040A39E00122A0F12A0C5FFA8CFCE4
:1033B80002FA0CFC1CEA0E0F48D11CF062502ED108
:1033C8001CEA020B42D0013C5444CAF1000C04EA46
:1033D8000C04002D61D0A3EB050CA4446645FFF452
:1033E80068AF002868D1042B47D158F8043B236004
:1033F800042304342AE0019A013A01924FF0000BA9
:1034080024E011F8010C6C2834D1002011F8023C9A
:1034180083466C2BC4D14FF0080A5346D3E708F112
:10342800070828F00708073424F00704F8E802AB77
:1034380035B106982044B0423FF63BAFC4E900AB33
:103448004FF0000B08344FF0080A534611F8010FEB
:10345800002878D0BBF1000F7FF46DAF2528F5D197
:103468004FF0010B019B013301934FF0040AECE785
:10347800584693E700208346A5E7082B02D06FF053
:10348800150018E708F1070828F00708F8E80223EC
:10349800C4E9002308230834D8E768B9042B02D10B
:1034A80008F10408A4E7082BE9D108F1070828F077
:1034B800070808F10808EDE7059A013A059258F857
:1034C800042B00920DE7039A900720D54FF0010CCA
:1034D800A4EB050E4FEA9E00BEF5007FCFD20F2F5A
:1034E800CDD8F5B107F140020DEB020E019AC0B23A
:1034F8000EF8200C0EF8102CBCF1000F3FF417AF9B
:1035080060F07F000EF8200C09F101090137C5F1C0
:1035180008024FF6DA7E0434069297E74FF0000C63
:10352800DAE7BCF1000F01D00136EFE70298023666
:103538000028EBD10098CDE9063114F023F8DDE935
:1035480006310644E2E7631BB3F5806F97D23DB9B5
:10355800A6F10804E018AEE66848020058680300BF
:10356800029A9B0828602B709DF81030C2B1EB704E
:1035780085F80290B9F1000F05D0002208A8C5F11E
:10358800010C97420ED14FF0000AC5F101030DF16D
:10359800200801930DF1300B574512D1601B8AE6C4
:1035A8006B70E5E710F8013B190608D504EB0C0E23
:1035B800764503F07F03FFF47CAE04F8013B01324B
:1035C800DFE7B9F1000F03D098F90020002A17DBD4
:1035D800029BD3B11AF80B2004F8012B0022019B9F
:1035E800981820448642FFF464AE98F800000099C9
:1035F80004F8010B20460392FDF7A8FA039A144435
:103608000AF1010A08F10108C6E798F8002055F800
:1036180022300093029B009845F8223013F0B2FF45
:10362800421CDCE76FF00D0045E600BF2DE9F04FC6
:1036380095B000AFBB61BB6F0446C3F3C0038A46B5
:1036480090F802B07A623B6141B9457800780BEB9B
:1036580080002044554517D8A0EB040AE3787B6125
:10366800BBF1000F02D0BB6FD80716D47B6953BBE0
:103678007B6A1BB151462046BA6998475546284689
:103688005437BD46BDE8F08F461C304613F07AFF2C
:10369800013030440AF1010ADCE7237862683B62B2
:1036A8009B00FB603B6AFA6104EB83097B6A002B91
:1036B80040F0FF80C8460026554609EB0B0AD04566
:1036C80051D1D94413E0BB6F9907D1D523789946D6
:1036D8003B629B00FB60636804EB8909FB617B6AC2
:1036E800002B7AD15546BBF1000F4FD15E46BB6F18
:1036F80013F0050F0CBF4FF0020B4FF0010B7B6965
:1037080009EB430ABB6F03F002037B62D145B6D0D5
:1037180019F8021B19F8013C54F82380AB4B984563
:1037280002D3AB4B984538D33B69002B42D0F8699C
:103738001AF0DAFF00283DD0E8468AB06A46A54B61
:103748005361FB69C2E906314FF400731384A24B3D
:1037580042F8103F00234FF41251A04801F08EFBAD
:10376800023DC546D2E718F8013B54F8230013F090
:1037780009FFFB6F01303BB1D7F880309E423EBF56
:10378800FB6F23F816000136054498E7BB6F13F06A
:1037980004061CBF7E6AD944A9E73B6923B1F869CE
:1037A8001AF0A2FF0028C7D1BB6FDA0705D4A5EB32
:1037B8000B05ABE77B6A002BA8D0404613F0E2FE6E
:1037C800FB6F43B1D7F880309E423FBFFA6F431C6E
:1037D80022F816300136054498E7BBF1000F6ED089
:1037E800BB6F13F004066DD0D846002607F14000E1
:1037F8005A464946FDF7AAF97B69D9445B007B60C4
:103808007B6909EB4303BB60BB6F03F002033B60BA
:10381800BB684B4558D1B96F6378B86F890748BF03
:10382800002106EB030258BF4FEA5801C507D2B280
:1038380000F19A8010F0040F14BF40460020FB618D
:103848006270A070E1702046BA69F9687B6A98478F
:10385800051EFFF614AF3B6A41462370FB69BA693F
:1038680063707B6984F802B0E37007F140007B6AFB
:103878009847B0F10008C0F2A480FB68AAEB0B01DE
:10388800C91A7B684846C91ABA697B6A98470028EA
:10389800C0F299804FF0000BA84408EB000507F12F
:1038A800300AB34562D30021BA6908467B6A984753
:1038B800E5E65E464FF0000807F1300098E75E46FF
:1038C800D84699E7B04697E719F8021B3F4B19F815
:1038D800015C54F82500984202D33D4B98421DD311
:1038E8003B6923B1F8691AF0FFFE002890D13B68C4
:1038F800FBB908F1280307F1280208F1010003EBDE
:10390800020C07F1500308F1020853FA80F00CF892
:10391800101C5FFA88F800F8105C79E73B692BB156
:10392800F8691AF0E1FE00287FF472AFBB6FDB077D
:1039380009D506F1280307F12802711C9E1806F81C
:10394800205CCEB264E7BB6F58077FF561AF08F122
:10395800280307F1280208F1010103EB020808F81F
:10396800105C5FFA81F853E7002068E71BF80A301B
:1039780054F8239087F82F30FB6FFBB133F81B8086
:103988000121BA697B6A07F12F00984700281ADBE2
:103998000544B8F1000F06D1484613F0F3FD00F1D5
:1039A80001081FFA88F841464846BA697B6A984771
:1039B800002808DB05440BF1010B72E7D7F87C807F
:1039C800DEE745465BE6054659E600BF6848020063
:1039D800586803002223030004000001684C020019
:1039E8000F2808B506D91CF028FB092303604FF0FF
:1039F800FF3008BD044B03EB4013D3E8AF3F002B67
:103A0800F1D00020F5E700BFA006002030B50D4931
:103A1800400100F108030B44D3E8AF2F82B1541ED4
:103A2800D3E8EF5F954204D1C3E8EC4FBCF1000F37
:103A3800F6D1F1D1012A01BF00230A180B505360B7
:103A480030BD00BF9806002070B504460E461546E6
:103A5800FFF7C6FF00280CDB074B610103EB44149A
:103A6800626832601DB101F10C021A442A6058588C
:103A780070BD0020FCE700BF9806002010B50024A8
:103A88004FF0FF334FF0FF32144811F06FFE144B24
:103A9800D3E8AF2F7AB10134102C03F12003F7D10A
:103AA8001CF0CBFA17234FF0FF3403600B481AF0D1
:103AB8005DFE204610BDD3E8EF0F0130C3E8E10FEB
:103AC8000029F8D10748630100EB4411C2504A604D
:103AD8000C33184420F0C0F9E8E700BF3812002082
:103AE800A00600209806002010B404461046094B92
:103AF800620103EB44149950606040B1C46834B16A
:103B08000C32134410BC40F205121AF020BE10BC4F
:103B1800704700BF980600202DE9F04104460F4683
:103B28009046FFF75DFF002819DB0E4E640104F193
:103B38000C0535444FF0FF324FF0FF33284611F0A3
:103B480015FE33195B683059424639461B68984759
:103B5800044628461AF00AFE2046BDE8F0814FF0D8
:103B6800FF34F9E7980600202DE9F04104460F4696
:103B78009046FFF735FF002819DB0E4E640104F16B
:103B88000C0535444FF0FF324FF0FF33284611F053
:103B9800EDFD33195B683059424639465B689847F2
:103BA800044628461AF0E2FD2046BDE8F0814FF0B1
:103BB800FF34F9E798060020F8B50546FFF710FF2F
:103BC800002819DB0E4F6C0104F10C063E444FF03F
:103BD800FF324FF0FF33304611F0C8FD3B195B68E8
:103BE80038599B689847044630461AF0BFFD284666
:103BF800FFF70CFF2046F8BD4FF0FF34FAE700BF8F
:103C08009806002073B504460D461646FFF7E8FEF1
:103C180000280DDB08496001009601EB44142B468F
:103C2800095840F2011260681AF091FD02B070BDA7
:103C38004FF0FF30FAE700BF98060020014B1860EC
:103C4800704700BF9808002030B5002587B0CDE93F
:103C580003010446009503A90548059500F07AF983
:103C6800DDE904309842B8BF255407B030BD00BF25
:103C78009DE701002DE9F047058B0446280790468B
:103C880011D4022905F0070540F0CD8020461BF02D
:103C980064F878B10138218B042811D8DFE800F0E6
:103CA800C3106D85950001290CBF45F0100545F03E
:103CB8002005258388F31188BFF36F8FBDE8F0874F
:103CC80001F0070AAA4500F0A6800027B9463E463B
:103CD800A368002B00F0BD8041F00801218388F320
:103CE8001188BFF36F8FA168002900F0BB800D68B1
:103CF800002900F0B780334652462046D1F80480A8
:103D0800C047002D76D02B6829461D46F0E701F004
:103D180007035A1F012A1BD8002221F00701062B8E
:103D2800276889B2C4E9002209D13B4603E0628BC7
:103D3800013262831B68002BF9D141F00201204651
:103D480021831BF00AF800287BD041F0200177E09E
:103D5800042B0AD121F0070189B2204621831AF0E9
:103D6800FCFF10B141F020012183218B01F0070AEB
:103D7800AA4550D00027B946AAE7236921F00701D0
:103D880041F00601062DD3F8009021832DD1B9F119
:103D9800000F40D041F00801218388F31188BFF358
:103DA8006F8F20463949C84729E021F00701236968
:103DB80041F0040189B2042DD3F804902183E6D0A0
:103DC80000274FF0040A3E4682E721F007012369E5
:103DD80041F0050189B2052DD3F808902183D6D08A
:103DE80000274FF0050A3E4672E700274FF0060A03
:103DF8003E466DE72B4687E7B9F1000FD1D14FF06A
:103E08002003EFF3118883F31288BFF36F8F238B9E
:103E180023F008032383258BEA062ED525F010030B
:103E2800238305F007056669218B002EBFF66FAF67
:103E380000232768C4E9003321F0070141F001019C
:103E48002183218B4FF0000901F0070AAA457FF46E
:103E58003FAF002F9BD041F00801218388F31188E0
:103E6800BFF36F8F002FC7D03D683946334652469F
:103E780020461AF09EFF2F46F4E7AB067FF51AAFEF
:103E880025F02003238305F00705FFE6E7ED010091
:103E9800F0B5024601680A270020074E0B461C7839
:103EA8000131355D6D0701D41360F0BD07FB004398
:103EB800A3F13000F2E700BFC11103002DE9F84F6C
:103EC80015469A46D378224A6F2B12F803B08046DB
:103ED8000F460BF0030B29D024D8582B0CBF102603
:103EE8000A26DDF828903246002340463946FCF77A
:103EF8006DFD092AD4B21ED83034B045E4B277F14A
:103F0800000709F8014D01D3D14511D82B789B063C
:103F180005D5082E15D1AB7843F00803AB70484699
:103F2800BDE8F88F03F0F703702BD7E70826D8E72A
:103F380080460F46D7E7BBF1010F0CBF3734573423
:103F4800DBE7102EEBD1AB7843F01003E6E700BFB8
:103F5800C11103002DE9F04F8A4616461C4600257C
:103F680097B00390307808B928464AE3731C25288F
:103F7800049307D05146039B98470028C0F2418319
:103F88000135F0E11822002110A813F021FA737806
:103F9800252B00F0A380002398469E469C46184691
:103FA800711C0F4611F8012B2B2A00F0C68000F275
:103FB800BD80202A00F0C480232A00F0C4802BB1E1
:103FC8009DF8483043F040038DF84830B8F1000FB1
:103FD80005D09DF8483043F020038DF84830BEF1F5
:103FE800000F05D09DF8483043F010038DF8483095
:103FF800BCF1000F05D09DF8483043F008038DF858
:10400800483028B19DF8483043F004038DF8483013
:104018009DF8483003F04401442903D16FF3861317
:104028008DF848309DF848302A2A43F080030997D4
:104038008DF8483040F08C809DF8493043F00103FA
:104048008DF849307B1C1A782E2A0CBF01210021DB
:104058009DF8492061F341028DF849200CD15A1C82
:1040680009925A782A2A40F083809DF84920023321
:1040780042F004028DF849201A786C2A00F0A480D6
:1040880000F28680682A00F08C806A2A00F0A580F9
:104098004C2A00F0AA801A4612F8013B782B0492A9
:1040A8008DF84B309DF8492000F217816D2B00F2F6
:1040B800A980692B00F21181572B00F2BE80412B99
:1040C80003D0453B022B00F2088104229DF84A30B8
:1040D80062F302038DF84A300123CAE0B21C04924D
:1040E8008DF84B309DF84930D90740F1FD8054F8E0
:1040F800048BB8F1000F07DA9DF84820C8F10008D2
:1041080042F004028DF848205A0740F1F68054F82E
:1041180004BBBBF1000F80F2F5809DF849306FF3C6
:1041280041038DF849304FF0FF3BEBE02D2A0DD0CD
:10413800302A7FF444AF012333E74FF0010C30E716
:104148004FF0010E2DE74FF001082AE7012028E77C
:1041580009A8FFF79DFE099BBB423FF474AF9DF889
:1041680048201390C00F60F341028DF848206AE799
:1041780009A8FFF78DFE9DF848301490C3F340025C
:1041880042EAD07262F341038DF84830099B73E725
:10419800742A26D07A2A7FF47EAF06219DF849201A
:1041A8000CE05A78682A9DF8492006D1012161F36C
:1041B800C6028DF8492002336DE7022161F3C60279
:1041C8008DF84920013366E75A786C2A9DF8492012
:1041D80001D10421EBE70321F0E705219DF84920EF
:1041E800ECE707219DF84920E8E7BDF8482022F4CC
:1041F800F04222F0020242F4804242F00202ADF89C
:104208004820DFE76E3BD9B201238B4040F2824160
:104218000B4238D113F0240F52D1DF075DD50321AB
:104228009DF84A3061F302038DF84A3002F07803B2
:10423800A3F14000434243411BE00120A3F1580190
:10424800C9B200FA01F111F4624F7FF43EAF40F6B3
:10425800010739421DD111F4043F3ED09DF84A3080
:1042680060F3020302F07802402A8DF84A3034D015
:1042780000239DF84820C2F340010B4363F3410239
:104288008DF848202EE702219DF84A3061F3020399
:10429800E8E702209DF84A1002F0780260F3020174
:1042A800402A8DF84A1002BF9DF8481041F00101DC
:1042B8008DF84810632BDBD1131E18BF0123D8E7F4
:1042C80003219DF84A3012F0780F61F302038DF84C
:1042D8004A3014BF01230023CBE79DF8483043F050
:1042E80001038DF84830C3E79DF94820002AACBF88
:1042F8004FF0FF38DDF84C8006E79F077FF513AFD6
:10430800DDF850B00023CDE913339DF84A309DF80D
:10431800491003F00703012BC1F3C30133D1CB1EAE
:10432800042B04D8DFE803F0214646212100236846
:1043380001294FEAE372CDE910321CD19DF94030D2
:10434800DA17CDE9103204349DF8483013F003072A
:1043580050D032465146049B03981AF0E6FD0028D7
:10436800C0F24F810544049EFCE554F8043BDA177B
:10437800CDE91032E8E70229E5D11AB243F3C03398
:10438800CDE91023DFE7022B24D1CB1E042B04D860
:10439800DFE803F018101018180001294FF0000288
:1043A80054F8043B14D00229CDE91032CCD19BB289
:1043B8001093C9E7073424F00704F4E80223CDE991
:1043C8001023C1E754F8043B109300231193BBE773
:1043D800DBB2CDE7042B08D1073424F00704D4E975
:1043E80000230834CDE91023AEE7032BACD154F8F1
:1043F800043BDDE79DF84B007828B4D862281DD827
:1044080025283FF4B7AD5828ADD1DDE910010DF1ED
:104418003E03009312AA0AABFFF750FDBBF1000F51
:10442800814680F29880B9F1000F9CD00DF13E06CC
:10443800A6EB0903002F50D001334EE0633815284E
:1044480091D801A252F820F0D1440000354500006F
:104458006F4300006F4300006F4300006F4300008C
:10446800354500006F4300006F4300006F430000B4
:104478006F430000BF45000059450000814500001A
:104488006F4300006F430000A94400006F43000021
:10449800594500006F4300006F4300005945000074
:1044A800BBF1000FDDF840900ADB5946484613F08F
:1044B800CBF8B9F1000F3FF456AF09EB000676E0F0
:1044C800484613F05FF8F8E7109B00278DF828306E
:1044D80001230DF129060DF128099DF84A1011F064
:1044E8001002069200F081800233139A1344059259
:1044F8004A0644BF14995B18B8F1000F40F38E8048
:10450800A8EB03089DF848305807C3F3800B00F167
:104518008580590678D53FB151463846039B984760
:1045280000286EDB5F46013530236EE01E075ABF58
:10453800C3F300135F012B27DDE91023002BBFF61F
:1045480064AF524263EB43032D27CDE910235CE7A8
:1045580000275AE700279DF848100DF13E03A3EB0A
:1045680009036FF386119B458DF848107FF65BAF02
:10457800ABEB0303139356E7109880B30DF13E0697
:104588000AAB0021009612AAFFF798FCBDF84A3042
:10459800BBF1000F03F0EF0343F4F04343F01003C3
:1045A8008146ADF84A30D5DA00283FF4DCAE002762
:1045B800A6EB090391E7109B07293FF6D4AEDFE885
:1045C80001F00C04060C08080C0C1D70CBE61D80CD
:1045D800C9E6EA17C3E90052C5E61D60C3E6314ED5
:1045E80007460523A6F1050977E7080748BF013301
:1045F8007BE7184607935146039B98470028079B7B
:1046080004DA17B0BDE8F08F2023C34659460029C5
:104618000BF1FF3BEDDC4544D8466D1A37B15146E6
:104628003846039B98470028EBDB01359DF84A3054
:10463800DA0601D41B0706D551463020039B98475C
:104648000028DEDB0135069B3BB151469DF84B0047
:10465800039B98470028D4DB0135059F2F4406E0CB
:1046680051463020039B98470028CADB01357B1B45
:10467800002BF5DC33464A46514603981AF055FCA0
:104688000028BEDB0544A844A8EB0503002B7FF7F0
:104698006AAE51462020039B98470028B1DB0135BC
:1046A800F2E700BFDB230300044608B54FF0200201
:1046B800EFF3118382F31288BFF36F8F09F08EFD39
:1046C800204602F01DFA03481AF077F801F01EFDA3
:1046D800FCE700BFDC230300054B03EB8000D0F8A8
:1046E800003223F0E04343F04053C0F800327047F3
:1046F8000025845010B54FF02003EFF3118483F3A5
:104708001288BFF36F8F01220C4B0D49C3F80025A7
:1047180002230020C1F8D036FFF7DEFF1046FFF76E
:10472800DBFFC1F80427C1F80429C1F8002B84F382
:104738001188BFF36F8F002010BD00BF001000501C
:1047480000400050052370B5144D154E2C780134E7
:10475800B4FBF3F303EB8303E41A1EF07AF9114A6E
:10476800137823B156F82430C01A072814D94FF00B
:104778005023D3F8141141B10021C3F81411D3F810
:1047880014312C700CB9012313702C781EF061F9C8
:1047980046F82400012070BD0020FCE71D540020CD
:1047A800382A00201C54002048B1054B054A1B68D4
:1047B800B3FBF2F35843044B43F001031847704727
:1047C800DC09002040420F00C04D0200062807D136
:1047D8000122044BC3F80025BFF34F8F20BFFDE72C
:1047E800704700BF00400050F0B583B000AF381DDF
:1047F8000FF048FD274B984249D109F087FC041E69
:1048080013DA38790FF044FD6D4688B06A46224BBA
:10481800C2E90534032342F8103F00234FF4C25184
:104828001E4800F02BFBAD462DE040F607031C4D5B
:104838007C71AE68FB8074687B6814B96FF05704AC
:10484800E2E708212846174AA047041EDCDB336943
:10485800002BF3D00122082128469847041ED3DBF9
:1048680001233D79104AAB40C2F804357879FE79C6
:104878001EF0E4F80D4B45F00045B600C0F8805036
:104888009D51002CC0D120460C37BD46F0BD6FF0BD
:104898001204B9E70000AD0B09240300884D02009B
:1048A800A0490200FD4800000070015080A102509C
:1048B80038B5049CC4F30725284609F099FA002165
:1048C8000A4BA20B02F0FC02C0F880109950012399
:1048D800E4B2074AA3402846C2F8083509F034FC78
:1048E8002046BDE838400FF0D3BC00BF80A002507E
:1048F80000700150F7B5144683681B690BB100229C
:104908009847C4F30726304609F07AFA0546304638
:104918001EF094F80027104B220E9200C0F8807009
:104928009F50304609F064FAA20B0C4B02F0FC02CF
:104938001344E2B242F000421A60094BC0F88020EA
:1049480005F13202009330463B46019452001EF0B6
:104958007EF803B0F0BD00BF80A1025080A00250D5
:10496800B94800000FF00CBB2DE9F0470446074694
:104978004FF00109DFF8508014B93846BDE8F087D8
:1049880094FAA4F5B5FA85F509FA05F32E0108EBB2
:1049980005156FEA030A24EA03042B7B002BEBD0EE
:1049A80058F806301B694BB94644736804222846F8
:1049B800196807EA0A0700F04DFADDE72846984724
:1049C8000028D9D1F0E700BFA04D020030B5002281
:1049D80089B00F490F481FF097FD002200230024DB
:1049E800CDE906230E230C4DCDE903344FF4407274
:1049F8002846CDE90144094B0949009410F060FDAF
:104A0800084928461FF012FA204609B030BD00BFF9
:104A1800314A0000C01F002038170020094D00004F
:104A2800508700203A240300014810F089BF00BFD6
:104A3800341300202DE9F04780461F480F461AF02E
:104A4800FCFC0646002830D000252846BDE8F08743
:104A5800237B73B12368DB680BB120469847236832
:104A68001B69D3B9636804222046196800F0F2F97B
:104A7800013610344C45EBD3B8F1000FE5D0002DCA
:104A8800E2D02846FFF770FF0546002FF7D0002137
:104A98004FF4A47011F046FCF1E72046984700282F
:104AA800E0D00AFA06F31D43E2E705464FF0010A93
:104AB800024CDFF80C90DDE75C2A0020A04D0200D4
:104AC800B04D0200014B53F820007047784F0200A8
:104AD80008B5034608462BB1044A136000F06EFC83
:104AE800002008BD6FF01500FBE700BF9C08002000
:104AF80010B5044C237813B9034810F021FF0123A3
:104B0800237010BD1E5400203413002010B5044635
:104B180006481AF092FC3CB1054BD3E8EF1F013967
:104B2800C3E8E21F002AF8D110BD00BF542A0020B4
:104B3800582A002000200146034BD3E8EF0FC3E8B2
:104B4800E21F002AF9D17047542A002070B5FFF7F8
:104B5800F1FF0546074C084EB44200D370BD6368A8
:104B68005B792BB123685B6813B1294620469847C7
:104B78001034F1E7A04D0200B04D020010B5044C0E
:104B8800044920461AF0E4FA034B1C6010BD00BF2C
:104B98003C110020644F02004C2A002008B5002375
:104BA800074A4FF400411370064A07481360074A42
:104BB8001360FFF78DFFBDE80840FFF7DFBF00BFB8
:104BC8001F540020542A00203FF40100582A0020D6
:104BD80001460022002301481AF0DBBA3C110020EC
:104BE80001481AF074BB00BF3C110020024B01467B
:104BF80018681AF0BEBB00BF4C2A002001481AF002
:104C0800F4BB00BF3C11002070B5264B1878002873
:104C180047D0FFF7E5FF054670B1234BD3E8EF1FF8
:104C28000139C3E8E21F002AF8D1204C204EB442D3
:104C38002DD32846FFF7DAFF1E4B1F4C1B68002BAD
:104C480019DD1FF039FC4FF47A72A0FB020302FB56
:104C58000131C30B43EA4143D4E900209B1A40F2D7
:104C6800E9324FEAD13161EB0001934271F1000161
:104C780001D3FFF76BFFD4E9003213F57A7342F1E1
:104C88000002C4E90032BDE87040FFF7B7BF6368AF
:104C98005B7923B12368294620461B68984710345E
:104CA800C5E770BD1E540020582A0020A04D020000
:104CB800B04D0200542A0020B81F002070B50D4DD9
:104CC800297861B90120FFF7B5FE0B4C0B4EB442B1
:104CD80006D3FFF799FF0028FBD101232B7070BD85
:104CE80063685B791BB1236820469B68984710343A
:104CF800EDE700BF1F540020A04D0200B04D020098
:104D080000212DE9F0470846FFF794FE044648B312
:104D180040F267684FF0000911F038FB1A4B186031
:104D280030B11A4B1B68092B02DD194810F008FE38
:104D38000025184FDFF858A044B12046FFF714FEAD
:104D4800044618B94FF0FF384FF0FF39FFF75CFF02
:104D5800064628B9B5B942464B46504610F016FEED
:104D68003546E9E74FF0FF384FF0FF39D4E72B68B5
:104D78009B691BB100222846114698471035BD4251
:104D8800F5D3E8E7044DFAE7502A0020582A002016
:104D980034130020B04D0200A04D020013B518488E
:104DA8001AF04BFB174B1B787BB14FF02003EFF346
:104DB800118483F31288BFF36F8FFFF725FF84F305
:104DC8001188BFF36F8F02B010BD0F4B1B68002B0B
:104DD800F9D050B9002200230C48CDE900234FF444
:104DE8000042002311F07EFDEDE70A28EBD10748C9
:104DF8001FF096FB064802B0BDE8104010F0A0BDB9
:104E0800582A00201F540020502A0020C01F0020CC
:104E18003413002010B5064B04461B6898472146FA
:104E2800A06004481AF033FABDE81040FFF7B6BF97
:104E38009C0800203C110020044A054B9B1AB1EB4A
:104E4800D30F34BF52F8310000207047504C020095
:104E5800A04D0200084B10B4C31A44681B1101335B
:104E6800237143689A7101224368196043685A7133
:104E780010BCFFF73DBE00BFA04D02002DE9F04F6A
:104E88008FB0C1F34A2804AF0D469146B8607B60E5
:104E98000C0DB8F1000F63D000264FF0040B4FF053
:104EA8000A0A07F11403C7F80C80C7E907667E628F
:104EB8000193CDF808B0CDF800A007F11C033246E5
:104EC8004846F968FEF7B2FBB0F5006F03461CD3FD
:104ED8006C468AB0D9F8041004AB26481A46C3E9D0
:104EE800050140F2FF71D9614FF400711984224B1A
:104EF80042F8103F4FF4125133462048FFF7BEFFE7
:104F0800A5462C37BD46BDE8F08FC0F30A0804F16A
:104F18001700184420F0070080083B60FFF758FE90
:104F280068F35325044690B13B6800F11001C7E9C6
:104F3800083607F11403F961CDE900A3CDF808B0EC
:104F480048460F4AF96807F11C03FEF76FFB68F340
:104F580053252A4620467B68B9681AF0A0FAD0E79C
:104F680004F1170020F007008008FFF731FE04461F
:104F7800EDE700BF4F24030004000001904C02003D
:104F88007BF401002DE9F04F87B00446DDE9105AA3
:104F9800DDE912690F4693469846A6B310213346B9
:104FA80052460020CDF80090CDF81490FEF76AF92B
:104FB800014605F117000844144B04F007040BF0F0
:104FC800070BE40020F0070003EA412344EA8B14AE
:104FD80080081C430391FFF7FBFD44EA055405468E
:104FE80040B13EB1334652460399CDF80090103097
:104FF800FEF748F9434622463946284607B0BDE839
:10500800F04F1AF04CBA3146D3E700BF00FE0F004C
:105018000EB403B503AB53F8042B014604480193BF
:105028001AF063FA02B05DF804EB03B0704700BFF2
:105038001BF50100CA0605D48B064CBF024903497B
:10504800FFF7E6BF704700BF8F2403008E240300DC
:105058002DE9F04F89B09A46DDE913739DF848B001
:105068000593159B04460D46169E06920493BBF1C4
:10507800000F00F0858006F0080307931AF0F7F98F
:1050880006F002090246002849D020468549FFF764
:10509800BFFF8046B9F1000F08D016F0440F40D189
:1050A8002A4620468049FFF7B3FF804406F00103F3
:1050B80053B17E4B204653F82B207D4B7D49002A67
:1050C80008BF1A46FFF7A4FF06F00803002B54D0C8
:1050D800794B204653F82B207849FFF799FF05466E
:1050E800069B2BB11A4620467549FFF791FF0544E8
:1050F800BAF1000F05D0524620467249FFF788FFE3
:1051080005444544002F49D1049B002B4FD1F30798
:1051180000F1C18031462046FFF78CFFB5E080469C
:10512800B8E7694B18680028BFD0684B4FF47A7904
:105138001B684FF46161B5FBF3F5B5FBF0F300FBB9
:10514800135509FB05F5B3FBF1F2B5FBF0FE4FF083
:105158003C0C01FB123100FB1E55B1FBFCF309FBB3
:1051680005F5B5FBF0F50CFB131120460091CDE9D0
:1051780001E55749FFF74CFF97E706F00805AFE749
:10518800BAF1010F06D1002F65D1049B002B7CD00A
:1051980000250CE0002FF8D04E485DE04E483B4615
:1051A80022464E4919F06FFA049B002B69D0DFF8AC
:1051B8003081DFF83091049F3146102F204628BFF8
:1051C80010274FF0000AFFF735FF554546DC059BD1
:1051D800494620461A78FFF71BFF4FF0010A1AF0DC
:1051E800070F03D141462046FFF712FF57453CD928
:1051F800059B4946204613F80A20FFF709FF0AF1E4
:10520800010ABAF1100FEAD14FF0000A20463649D8
:10521800FFF7FEFE5246059B20469A5C334B995C8D
:1052280011F0970F08BF2E223149FFF7F1FE0AF15E
:10523800010ABAF1100F1DD01AF0070F03D1414629
:105248002046FFF7E5FE57455246E4D8414620463A
:10525800FFF7DEFEEBE720485D46A0E74146204623
:10526800FFF7D6FE0AF1010AAFE720462149FFF70A
:10527800CFFEC4E7059B3B440593049BDB1B0493CB
:1052880099D1BBF1000F7FF442AF204609B0BDE8C9
:10529800F04F1AF031B92046054A0649FFF7B8FE23
:1052A80038E700BF962403009A240300884F0200C1
:1052B80091240300012003009C4F0200BF24030037
:1052C800C5240300C9240300642A0020602A0020A2
:1052D800A324030049F501001BF50100F3F40100C4
:1052E800D6240300CE240300D8240300C1110300F0
:1052F800DA240300D42403002DE9F0410F884B6819
:1053080005460C4690468E6886B0C7F382175BB197
:10531800134A9B1A43F3CF0100291FDB2078C0F3FF
:10532800C200FFF789FD0346214651F8102B60881B
:10533800C2F34A22002A01EB020408BF0021C0F38D
:105348000B10CDE90308CDE90114002231462846A7
:105358000097FFF77DFE06B0BDE8F0810023E3E784
:10536800504C020042F20F7373B58B4228BF0B46B4
:1053780005680446052168460D4A19F02BFA0646C9
:10538800636828460B225B680A491AF0A1F863682B
:105398003246694628465B681AF09AF863681B2209
:1053A80028465B6804491AF093F802B070BD00BF44
:1053B800C8320300F9240300DD240300002101237F
:1053C800064A904206D8064A01B901231360054BE4
:1053D80018607047012140085B00F2E740420F0067
:1053E800602A0020642A0020014B002019607047C1
:1053F8007C2A00200122024B02481A701AF07CB85D
:1054080021540020CC4F02000148FFF7ABBF00BF7A
:10541800CC4F020010B5064B0C461868FFF752FB3C
:105428002146BDE8104003460F220248184700BF36
:105438007C2A0020CC4F0200F8B50D460446064FE2
:105448004618B44201D12846F8BD14F8011BBB68C0
:1054580001485B689847F4E7884902002DE9F8435A
:1054680005464FF02003EFF3118683F31288BFF34C
:105478006F8F4FF00C090D4B0D4F1C68DFF834800F
:105488002CB986F31188BFF36F8FBDE8F883D4E990
:105498000123002D18BF13462BB198F8142009FBDF
:1054A80002F2B85C98472468EAE700BF982A00200F
:1054B8008C2A0020DC470020012270B5164B1C7D89
:1054C80004F01F039A40D043144B610903EB810396
:1054D800D3E8EF1F01EA0005C3E8E65F002EF7D125
:1054E8000A4213D00E4B0F4D8BB10C236343EA18BD
:1054F8005178E85C19F087FF0020FFF7AFFF0C2315
:105508005C4300232A192B51C2E9013370BD83F390
:105518001188BFF36F8FEFE7DC470020A02A002037
:105528000FF401008C2A00202DE9F041324B074688
:105538001D7D4FF02003EFF3118883F31288BFF32A
:105548006F8F0C246C432D4B2D4E195D1A190029B1
:1055580047D007CA06EB040C8CE8070000221A554E
:1055680088F31188BFF36F8F0C236B43F05CF2183C
:10557800A8B37B1C10D04FF400400021D2F808C01B
:10558800204C0023ECFB00411F4A2046FBF71EFA83
:105598000121381A08F0E6FD10F00AFE0120FFF795
:1055A8005DFF1A4B6A0903EB8203012205F01F0114
:1055B8008A40D3E8EF0F1043C3E8E10F0029F8D180
:1055C800134B3BB10C2303FB05F033185978305CBF
:1055D800FFF7FCF8FFF770FF10F0FEFD0120BDE8B3
:1055E800F0810146284600F015F80028B8D007C811
:1055F800344484E80700B3E7DC470020802A002011
:105608008C2A00203F420F0040420F00A02A0020B1
:10561800D54700002DE9F04F85B00E4603A900F0EC
:1056280043F84FF4004704464FF0000B1B4B039D13
:10563800D3F800A0431E1BB203EB4303DFF86080DE
:1056480005EB830524B9A146484605B0BDE8F08FAF
:10565800C446594668680023E0FB07C1114A604602
:10566800FBF7B4F9C44659460190A8680023E0FB4B
:1056780007C10C4A6046FBF7A9F9BAF1FF3FA946F2
:1056880001D0824505D9731CDED0019B1844B04275
:10569800DAD9013CA4B20C3DD4E700BFA008002031
:1056A8003F420F0040420F0008B9024B0B60002038
:1056B800704700BFDC4F020007B5002908DA426EC8
:1056C800494242F004024160426603B05DF804FBBF
:1056D800FBD14368002200930249002303F0A0FE97
:1056E800F3E700BF75F70100F7B507460E46144605
:1056F800FEF7C4F9051E17DB3CB97B1E012B04D845
:10570800022E16D0012E08BF0624F1B201ABA2B2B8
:10571800B8B203F099FB061E0DDA284619F028F8EE
:105728001AF08BFC764206604FF0FF35284603B02E
:10573800F0BD1124E9E7002301984360436668300F
:105748001EF003FC019880301EF078FE062C02D172
:1057580001981BF03FFB2846024A0199FEF7C4F95D
:10576800E4E700BFDC4F020037B5069D0446C3B925
:105778000093002200230C4903F052FE04F1680054
:105788001EF0E3FB04F180001EF058FE05F16800EE
:1057980021461EF006FC204603B0BDE830401BF051
:1057A80019BB03B030BD00BF75F7010080B50A4BC7
:1057B80000AF88B06A469B68D36104230749C2E9F1
:1057C800051042F8103F00234FF401510448FFF739
:1057D80055FBBD4680BD00BFDC470020A82503005F
:1057E800304D020080B500AF88B06A46074BC2E969
:1057F8000530032342F8103F00234FF4C4510448F6
:10580800FFF73CFB6FF01500BD4680BDCF250300B8
:10581800304D02002DE9F04105460E461746104C62
:10582800DFF84080444507D31AF007FC6A23036079
:105838004FF0FF30BDE8F0812368AB4200D063B978
:105848003A4631462846A368984730B13A46314629
:105858002846E368BDE8F04118471034E2E700BF86
:10586800404C0200504C020037B5054603F0CCFB13
:10587800041E06DA1AF0E1FB644204604FF0FF30C0
:1058880006E0B5F89030C3F38113022B02D0002054
:1058980003B030BD6B6800220093284600230349FB
:1058A80003F0BEFD041EF2DAE4E700BF75F701005D
:1058B800F0B5B0F890500446C5F34105022D85B007
:1058C8003DD0012D436E10D15B0706D54468002CEE
:1058D80035DD1AF0B2FB046003E01AF0AEFB782362
:1058E80003604FF0FF3005B0F0BD13F002030ED097
:1058F800002600274368CDE900670293114B1BF08F
:1059080010FB041E1BDA1AF098FB6442E3E74FF41D
:10591800C03600270293CDE900671BF002FB051E85
:1059280004DA1AF08AFB6D420560DAE76368002240
:10593800009320460023044903F072FDE1E70020AC
:10594800D1E700BFC156000075F7010037B505461D
:105958001BF091FA041E07DA1AF06FFB6442046028
:105968004FF0FF3003B030BD002200232846044921
:1059780000951BF04FFB041EEEDB0020F2E700BF92
:10598800715700002DE9F04104460F461646FEF710
:1059980075F8051E17DB636E13F002080CBF4FF095
:1059A800FF320022134604F168000FF095FF044609
:1059B80090B9284618F0DCFEB8F1000F08D01AF0AC
:1059C8003CFB0B2303604FF0FF352846BDE8F08110
:1059D8001AF033FB1623F5E768301EF00AFBA0B176
:1059E80090F83730990710D5636E284643F00103C5
:1059F800636618F0BDFE204619F09EFE204603F0AF
:105A0800DBFA1AF01AFB7123DCE7B4F890305A0578
:105A18000DD51AF012FB71230360284618F0A8FE72
:105A2800204619F089FE204603F0C6FACBE723F496
:105A38000073A4F8903077B16EB132683846082AFE
:105A480028BF082204F12801FBF780F8238D012BD9
:105A580007D10823336021462846084AFEF744F850
:105A6800B3E7022B01D11823F4E7284618F080FE8B
:105A78001AF0E3FA86230360D2E700BFDC4F020086
:105A88002DE9F04F90464FF0FF3A4FF0FF3B0A22C6
:105A98008DB05B0604460F46CDE90AAB099203D4E4
:105AA800436E13F0020341D000252E46CDE90A5576
:105AB800DDE90A011EF006FD63680791009381463F
:105AC800002200232046294903F0AAFCB0F1000A6D
